:020000040800F2
:100000000004002023030008310300083303000824
:10001000350300083703000839030008000000001A
:10002000000000000000000000000000590200086D
:100030003D03000800000000D10200080D03000885
:100040004303000843030008430300084303000878
:100050004303000843030008B713000843030008E4
:100060004303000843030008430300084303000858
:100070004303000843030008430300084303000848
:100080004303000843030008430300084303000838
:100090004303000843030008430300084303000828
:1000A0004303000843030008430300084303000818
:1000B000D912000843030008430300084303000863
:1000C00043030008430300084303000843030008F8
:1000D00043030008430300084303000843030008E8
:1000E00043030008430300084303000843030008D8
:1000F00043030008430300084303000843030008C8
:1001000043030008430300084303000843030008B7
:1001100043030008430300084303000843030008A7
:100120004303000843030008430300084303000897
:1001300000F002F800F03AF80AA090E8000C8244BF
:100140008344AAF10107DA4501D100F02FF8AFF29C
:10015000090EBAE80F0013F0010F18BFFB1A43F0A5
:1001600001031847D84D0000F84D0000103A24BF95
:1001700078C878C1FAD8520724BF30C830C144BF0C
:1001800004680C607047000000230024002500264E
:10019000103A28BF78C1FBD8520728BF30C148BFEA
:1001A0000B6070471FB51FBD10B510BD03F0A6FA58
:1001B0001146FFF7F7FF0FB400F00CF80FBC01F089
:1001C00028F903F089FA03B4FFF7EEFF03BC03F04C
:1001D0008FFA000004B003F09BFB0448002103F0F9
:1001E0005FFC03F0A7FB03F077FA0000700000202B
:1001F00080F309887047EFF309807047684680F301
:10020000098804480078C00714BF0220032080F347
:1002100014887047FC4E0008DFF818C0EFF3058320
:100220001B0618BF6047EFF31483DB0708BF604766
:1002300000DF70474B3B0008DFF818C0EFF3058381
:100240001B0618BF6047EFF31483DB0708BF604746
:1002500000DF7047C93D0008EFF30980816911F89C
:10026000021CF1B990E80F10E047EFF3098C8CE81D
:100270000700144B93E8060091420FD039B12CE9E6
:10028000F00FC1F828C00CB404F086F90CBC1A6059
:10029000D2F828C0BCE8F00F8CF309886FF0020E8A
:1002A000704710B5084A1268914209D8074C54F8B3
:1002B000214090E80F10A047EFF3098C8CE80F0065
:1002C00010BD0000880000204837000848370008AB
:1002D00004F034F80C4B93E80600914210D0EFF391
:1002E000098C2CE9F00FC1F828C00CB404F054F9C3
:1002F0000CBC1A60D2F828C0BCE8F00F8CF3098857
:100300006FF0020E704700008800002004F00CFA25
:10031000E0E7000003F018FC04F006FADAE700005A
:1003200070470B4880470B4981F308880A4800470B
:10033000FEE7FEE7FEE7FEE7FEE7FEE7FEE7FEE795
:10034000FEE7FEE705480649044A064B70470000F1
:1003500021030008901600203101000890140020AD
:1003600090160020901400202DE9FE430646F84820
:10037000006803F045FB0746F648006803F040FBC1
:100380000446F548006803F03BFB0546F348006867
:1003900003F036FB8046F248407800F00F00052855
:1003A0007BD2DFE800F003147BDFFD00EC484078EF
:1003B000287000222946EB48006803F015FB4FF037
:1003C000FF31012003F060FB8DE807005EE1E448A7
:1003D000407828706E7000222946E248006803F0D9
:1003E00003FB4FF0FF31012003F04EFB8DE80700C7
:1003F0002946D948006803F02BFBD9484079A8B9B1
:10040000D748407838707E7000223946D648006858
:1004100003F0EAFA4FF0FF31012003F035FB8DE8DD
:1004200007003946CA48006803F012FBCC488079BF
:10043000B8B9CB48407888F8000088F801600022FD
:100440004146CA48006803F0CFFA4FF0FF3101205F
:1004500003F01AFB8DE807004146C048006803F02E
:10046000F7FABF4840782070BD4880786070BC487B
:100470000079A07000222146BD48006803F0B4FA5C
:100480004FF0FF31012003F0FFFA8DE8070021460D
:10049000B048006803F0DCFAF8E0F6E0B0484078D5
:1004A00028706E7000222946AE48006803F09CFA5E
:1004B0004FF0FF31012003F0E7FA8DE807002946ED
:1004C000A548006803F0C4FAA5484079A8B9A44833
:1004D000407838707E7000223946A348006803F0E7
:1004E00083FA4FF0FF31012003F0CEFA8DE80700C8
:1004F00039469748006803F0ABFA9948407888F885
:100500000000002088F8010000224146974800685A
:1005100003F06AFA4FF0FF31012003F0B5FA8DE8DD
:10052000070041468D48006803F092FA8C484078F5
:1005300020708B488078607089480079A070002214
:1005400021468B48006803F04FFA4FF0FF3101203D
:1005500003F09AFA8DE8070021467E48006803F010
:1005600077FA93E07E48407828706E700022294622
:100570007C48006803F038FA4FF0FF31012003F0A7
:1005800083FA8DE8070029467348006803F060FA93
:10059000734840783870002078700022394600E0B7
:1005A00046E07148006803F01FFA4FF0FF31012068
:1005B00003F06AFA8DE8070039466548006803F0E1
:1005C00047FA67488079B8B96548407888F80000EC
:1005D00088F80160002241466448006803F004FA8C
:1005E0004FF0FF31012003F04FFA8DE8070041463C
:1005F0005A48006803F02CFA59484078207058484F
:100600008078607056480079A070002221465848D2
:10061000006803F0E9F94FF0FF31012003F034FAEC
:100620008DE8070021464B48006803F011FA2DE0E1
:100630004B48407828706E7000222946494800686F
:1006400003F0D2F94FF0FF31012003F01DFA8DE8DD
:1006500007004348407820704148807860704048E7
:100660000079A070002221464148006803F0BCF9DF
:100670004FF0FF31012003F007FA8DE80700214613
:100680003448006803F0E4F900E000BF00BFBDE8B3
:10069000FE8310B504460020FFF766FE10BD30480B
:1006A000407800F00F00052864D2DFE800F003076F
:1006B0000809290000202A49C8705CE000BF00BF7B
:1006C0002748C07830B1012808D002280AD0032872
:1006D00010D10BE001202249C8700FE00220204910
:1006E000C8700BE003201E49C87007E001201C49B8
:1006F000C87003E000201A49C87000BF00BF3AE08C
:100700001748007930B101280AD002280ED00328FA
:1007100017D111E00120124908711020887015E0EE
:1007200002200F490871102088700FE003200C4947
:1007300008711020887009E000200949087188704C
:1007400004E0002006490871887000BF00BF12E075
:100750002C0000203C000020240000203400002059
:10076000A8000020280000203000002038000020D1
:100770004000002000BF00BF7047FA48407800F0FA
:100780000F00052827D2DFE800F0030A11181F0028
:10079000F448807840F00100F24948701FE0F148C9
:1007A000807840F00200EF49487018E0ED4880780A
:1007B00040F00300EB49487011E0EA48807840F0CF
:1007C0000400E84948700AE0E648807840F00100FB
:1007D000E449487003E00020E249487000BF00BFD0
:1007E000704700BFE04800884FF4377148434FF42A
:1007F0007A7190FBF1F4B4F5326F1DD300224FF4FF
:100800000071DA4801F099FA00224FF40051D848FB
:1008100001F093FA00224FF48041D54801F08DFA9F
:1008200000224FF40041D24801F087FA00224FF431
:100830000061D04801F081FAB4F52A6F1FD9B4F5F0
:10084000326F1CD200224FF40071C84801F075FAD3
:1008500000224FF40051C64801F06FFA00224FF415
:100860008041C34801F069FA00224FF40041C048BA
:1008700001F063FA0122D102BE4801F05EFAB4F53C
:10088000226F1ED3B4F52A6F1BD200224FF40071E1
:10089000B64801F052FA00224FF40051B44801F07A
:1008A0004CFA00224FF48041B14801F046FA01228F
:1008B000D103AF4801F041FA0122D102AD4801F065
:1008C0003CFAB4F5196F1DD3B4F5226F1AD2002289
:1008D0004FF40071A54801F030FA00224FF40051A6
:1008E000A34801F02AFA01229103A14801F025FA58
:1008F0000122D1039E4801F020FA0122D1029D4835
:1009000001F01BFAB4F5116F1CD3B4F5196F19D2AD
:1009100000224FF40071954801F00FFA01225103B3
:10092000934801F00AFA01229103914801F005FA77
:100930000122D1038E4801F000FA0122D1028D4834
:1009400001F0FBF9B4F5086F1BD3B4F5116F18D2A1
:1009500001225102854801F0F0F901225103844837
:1009600001F0EBF901229103814801F0E6F901223F
:10097000D1037F4801F0E1F90122D1027D4801F065
:10098000DCF9B4F5086F18D201225102774801F062
:10099000D4F901225103764801F0CFF901229103E5
:1009A000734801F0CAF90122D103714801F0C5F979
:1009B0000122D1026F4801F0C0F941F2883002F003
:1009C0009BFF0FE76C48006803F01AF8054600BF6C
:1009D0004FF0FF316948006802F0FAFF684B07C327
:1009E0006748006810283BD1654844686078102843
:1009F00029D1A07830B1012808D002280ED00328D0
:100A00001CD113E0002000F0EDFE1BE0012000F0FF
:100A1000E9FE42F210705B49088013E0012000F00B
:100A2000E1FE48F6B800574908800BE0012000F0CD
:100A3000D9FE4EF6FC105349088003E0002000F078
:100A4000D1FE00BF02E0002000F0CCFE01214E48A4
:100A5000006803F00DF829464748006802F0F8FFE7
:100A600040F2EE2002F048FFB2E74848006802F08A
:100A7000C7FF074600BF00214548006802F0A8FFF5
:100A8000444B07C34348006810280FD141484468CD
:100A9000207800F00F05667801213B48006802F0DD
:100AA000E7FF39463948006802F0D2FF012D04D033
:100AB000022D1CD0032D20D100E000BF80212D4845
:100AC00001F01DF928B900220221284801F035F96A
:100AD0000CE0012E05D101220221244801F02DF95C
:100AE00004E000220221214801F027F906E000225B
:100AF00002211E4801F021F900E000BF00BF4FF4C1
:100B0000FA7002F0F9FEB6E74DF2D86422480068A8
:100B100002F076FF814600BF00212048006802F005
:100B200057FF1F4B07C31E480068102815D11C48EB
:100B30004668307800F00F0775784FF00008012DF7
:100B400001D14DF2D86401210F48006802F090FFF6
:100B500049461148006802F07BFF012F22D0022F86
:100B600042D120E0A800002046000020000C0140F7
:100B700000100140000801403C000020400000201F
:100B800074020020382C01400400002034000020B2
:100B9000380000201C0200202C0000203000002023
:100BA000C401002000BF012D0DD1B8F1000F04D108
:100BB000012000F0EDFDA84615E0A4B1FD490C8030
:100BC000A4F5FA740FE0B8F1000F0CD1F9490C80CC
:100BD00004F5FA744DF2D860844204D14FF0010854
:100BE000002000F0D5FD00BF00BF00BF4FF4FA7039
:100BF00002F082FE90E7F048006802F001FF06462E
:100C000000BF4FF0FF31ED48006802F0E1FEEC4B11
:100C100007C3EB48006810281ED1E948456800BFAB
:100C200000BF287800F00F0400BF0121E5480068EC
:100C300002F01EFF3146E048006802F009FF002183
:100C40004FF0804001F027FE0021012001F06DFAF5
:100C500040F6C41002F050FE052C74D2DFE804F018
:100C6000031E3C1F57004FF4FA70D7498860962046
:100C7000C86042F21070086140104861002088612D
:100C8000C8614FF4FA7000F014FF0121084601F02A
:100C90004CFA0121880701F0FEFD55E000BF4FF43A
:100CA000FA70C94988609620C8604FF6E85008611C
:100CB00049F640404861782088613C20C8614FF483
:100CC000FA7000F0F6FE0121084601F02EFA01212B
:100CD000880701F0E0FD37E04FF4FA70BA49886008
:100CE0009620C86042F210700861401048610020F0
:100CF0008861C8614FF4FA7000F0DBFE01210846FC
:100D000001F013FA0121880701F0C5FD1CE04FF442
:100D1000FA70AD4988609620C86042F21070086190
:100D20004010486100208861C8614FF4FA7000F0FB
:100D3000C0FE0121084601F0F8F90121880701F001
:100D4000AAFD01E0FFE700BF00BF0A2002F0D4FDCA
:100D500057E71CB59D48006802F052FE009001263E
:100D60004FF0000B0020019082460027804600BF14
:100D70000A219748006802F02BFE964B07C395485E
:100D80000068102872D19348D0F8049099F8007048
:100D900001219148006802F06BFE27B1012F0CD0B1
:100DA000022F0DD106E00120FFF7DEFA01264FF0F9
:100DB000000B06E0FFF7E1FC03E0FFF770FC00E04A
:100DC00000BF00BF8048407800F00F00052813D214
:100DD000DFE800F00306090C0F000026B3460EE022
:100DE0000126B3460BE00226B34608E00426B346CC
:100DF00005E00726B34602E00026B34600BF00BF69
:100E00007148407800F00F00042803D16E4890F834
:100E100004A002E06C4890F803A0BAF1000F09D0DA
:100E2000BAF1010F0AD0BAF1020F0BD0BAF1030FD9
:100E300010D10BE00026002001900FE008260820CA
:100E400001900BE010261020019007E020262020C2
:100E5000019003E000260020019000BF00BF0024A5
:100E6000A0465A480099006802F0F2FD27B1012F10
:100E70007ED0022F7DD10EE032460621002000F008
:100E8000D9FB601CC4B2062C02DA7006060E01E023
:100E9000002401263EE106210320019A00F0CAFB4E
:100EA0003C2C0DDA14B90020FFF75EFA324603211C
:100EB000002000F0BFFBF043C6B2601CC4B2A6E045
:100EC000B8F1000F65D15A460321002000F0B2FBB3
:100ED0004FF001080120FFF747FA012204213F48A3
:100EE00000F02BFF3848407800F00F0005282FD283
:100EF000DFE800F0030D17222D0000203249487171
:100F0000887100221021364800F017FF21E00120EF
:100F10002D494871887101221021314800F00DFFE0
:100F200017E0012028494871002088710122102112
:100F30002B4800F002FF0CE00020234948710120FB
:100F4000887100221021264800F0F7FE01E000E041
:100F500000BF00BF1C48407800F00F00042856D0A6
:100F60001948C07848B1012809D002280AD001E008
:100F70004EE0CEE003280AD107E0002508E044F265
:100F8000506505E048F6A04502E0002500E000BFFE
:100F90003DE00D48407800F00F00042837D00A48A3
:100FA000C07830B101281FD002281ED003282CD1D0
:100FB00029E017E0342C0140240000202800002004
:100FC0006C01002004000020A80000201C0000206C
:100FD000200000201401002000000020000C01402F
:100FE00000080140002511E000BF012D00D96D1E51
:100FF000012D07D100250020FFF7B6F90020F849A0
:101000004871887102E0002500E000BF00BF81E068
:101010005A460321002000F00DFB3C2C09DA324631
:101020000621032000F006FBF043C6B2601CC4B2E8
:101030006EE0B8F1000F46D106210320019A00F0BE
:10104000F9FA4FF001080120FFF78EF9012204217F
:10105000E44800F072FEE248407800F00F000528F6
:101060002FD2DFE800F0030D17222D000020DC490D
:101070004871887100221021DB4800F05EFE21E0FB
:101080000120D7494871887101221021D64800F00B
:1010900054FE17E00120D2494871002088710122D6
:1010A0001021D14800F049FE0CE00020CC494871E5
:1010B0000120887100221021CB4800F03EFE01E0A3
:1010C00000E000BF24E0C648407800F00F0004288C
:1010D0001ED0C348C07830B1012806D0022805D000
:1010E000032813D110E0002511E000BF012D00D925
:1010F0006D1E012D07D100250020FFF735F90020D6
:10110000B7494871887102E0002500E000BF00BFC8
:1011100000E000BF00BFFA2002F0EEFB28E60EB5AB
:10112000B248006802F06CFC064600BF00240025AF
:1011300001270121AC4800F0E2FD00287CD14FF4EA
:10114000FA7002F0D9FB0DE00121A74800F0D7FDAD
:1011500020B90A2002F0D0FB641C00E000240A2C15
:1011600000D900E0F0E700BF002401219E4800F014
:10117000C6FDE8B91AE001219B4800F0C0FDA0B906
:10118000641C322002F0B8FBB4F5967F0ED9944867
:10119000007848B901220421934800F0CEFD0122D5
:1011A0000221914800F0C9FD01E000E0E3E700BF43
:1011B000B4F5967F41D98A480078F8B90122022116
:1011C000894800F0BAFD01220421874800F0B5FDEE
:1011D00000220421834800F0B0FD00221021824843
:1011E00000F0ABFD01207E49087000203070002225
:1011F00031467F48006802F0F7FB56E000220421E8
:10120000784800F09AFD00221021774800F095FD03
:101210000A2002F071FB00207149087000220221AF
:10122000714800F08AFD0A2002F066FB00220421CA
:101230006D4800F082FD38E04AE000250DE0012114
:10124000694800F05CFD012806D16D1C052002F004
:1012500053FB1E2D01D901E00025F0E700BF00255A
:10126000012710E00121604800F049FD012807D165
:101270006D1C0A2002F040FBB5F57A7F03D903E02C
:101280000025022700E0EDE700BF022F06D100BFD6
:101290000121554800F033FD0028F9D037700022B5
:1012A00031465348006802F09FFB00BF01214E48C1
:1012B00000F025FD0028F9D04FF0FF31012002F0A9
:1012C000E3FB8DE8070031464848006802F0C0FBA8
:1012D000322002F011FB29E710B50121880701F047
:1012E000B8FD002866D00121880701F0C3FD002168
:1012F0004FF0804001F0CFFA0021012000F015FFEF
:101300003748C06808B33B4802780121354800F0EF
:1013100014FD3848007818B9FF203649087002E0FB
:101320000020344908702E48C068401E2C49C8600F
:101330004FF4FA7000F0BDFB0121084600F0F5FE05
:101340000121880701F0A7FA34E02548806990B1AF
:1013500096202349C86008468069401E8861086954
:1013600000F0A7FB0121084600F0DFFE01218807FD
:1013700001F091FA1EE01A48C06990B19620184910
:10138000C8600846C069401EC861486900F091FB0A
:101390000121084600F0C9FE0121880701F07BFA0F
:1013A00008E000214FF0804001F075FA0021012093
:1013B00000F0BBFE10BD70B501200F4908604FF46E
:1013C000FA7002F099FA21E00121074800F097FC39
:1013D000A0B90A2002F090FA6D1C002410E0000071
:1013E000A8000020000C0140000801401C00002063
:1013F0002000002044000020140401400025641C4B
:101400000A2D00D903E00A2C00D900E0DCE700BF78
:1014100070BD10B502F0DCF800F0DAF800F03FF92A
:1014200000F093FA00F021FB0020464908700120EB
:10143000C870002008718870487188714FF4FA7084
:1014400088609620C86042F21070086140104861C0
:1014500000208861C86100213B4802F0A1FA3B49A5
:1014600008603B4802F0DCFA3A49086000213A483B
:1014700002F096FA39490860394802F0D1FA394940
:1014800008600021384802F08BFA38490860384873
:1014900002F0C6FA374908600021374802F080FAA6
:1014A00036490860364802F0BBFA36490860002128
:1014B000354802F075FA35490860354802F0B0FA4F
:1014C000344908600021344802F0EAFA33490860E0
:1014D0000021334802F0E4FA324908600021324822
:1014E00002F0DEFA314908600021314802F0D8FAF2
:1014F000304908600021304802F0D2FA2F490860D4
:1015000000212F4802F0CCFA2E49086000212E4815
:1015100002F0C6FA2D49086000F0B6FA4FF4FA60FE
:1015200000F0C7FA00214FF0804001F0B4F900212B
:10153000012000F0FAFD4FF0FF3002F0DDF900204D
:1015400010BD0000A8000020A44D000820000020CD
:10155000984D00081C000020B84D0008280000200D
:10156000AC4D000824000020CC4D000830000020C5
:10157000C04D00082C000020E04D0008380000207D
:10158000D44D000834000020F44D00084000002035
:10159000E84D00083C0000205C4E000800000020E0
:1015A0004C4E0008040000203C4E000808000020BB
:1015B0002C4E00080C0000201C4E000810000020DB
:1015C0000C4E000814000020FC4D000818000020FC
:1015D00038B500240121102000F09AFD01210420DB
:1015E00000F096FD0121082000F092FD00BF1EE0F2
:1015F000254800EBC400808880B2ADF800001020C0
:101600008DF8030003208DF802001F4951F83400C3
:10161000694600F0E1FA1C4A02EBC402928891B2DA
:10162000194A52F8340000F086FB601CC4B20F2C3B
:10163000DEDB38BD2DE9F04106460F461546002495
:10164000F4B21CE005F0010058B10F4A02EBC402ED
:10165000928891B20C4A52F83400002200F06DFBDF
:101660000AE0094A02EBC402928891B2064A52F893
:101670003400012200F061FB6D10601CC4B2BC425A
:10168000E0D3BDE8F08100006C4E000801B502E037
:101690000098401E009000980028F9D108BD08B5B8
:1016A0000121042000F034FD0121082000F030FD6C
:1016B0000121102000F02CFD0120ADF800008DF874
:1016C000020048208DF803006946154800F084FAAE
:1016D0000220ADF8000001208DF8020010208DF8E6
:1016E000030069460E4800F077FA0420ADF80000C8
:1016F00001208DF8020010208DF80300694608488B
:1017000000F06AFA8020ADF8000001208DF8020098
:1017100048208DF803006946014800F05DFA08BDD5
:101720000008014008B50121C80200F0F1FC0121C8
:101730000C2000F0EDFC4FF46040ADF800001820E4
:101740008DF8030003208DF802006946854800F0FB
:1017500043FA08BD0EB54EF66020ADF8040009202E
:10176000ADF800000020ADF80600ADF802006946B3
:101770007D4800F00AFE01217B4801F08DF901212E
:10178000794801F088F80121774801F090F80EBD02
:101790001FB504467020ADF800000020ADF802002F
:1017A000012C03D10420ADF8040002E00020ADF8C4
:1017B00004004EF66020ADF806000220ADF80800E7
:1017C0000820ADF80A004001ADF80C000020ADF88B
:1017D0000E006946644800F0F1FD0821624801F0FE
:1017E0008BF91FBD1FB504467020ADF80000002026
:1017F000ADF80200012C03D10420ADF8040002E092
:101800000020ADF804004EF66020ADF8060002207E
:10181000ADF808000820ADF80A004001ADF80C0052
:101820000020ADF80E0069464F4800F0FEFD08218B
:101830004D4801F06AF91FBD1FB504467020ADF890
:1018400000000020ADF80200012C03D10420ADF807
:10185000040002E00020ADF804004EF66020ADF870
:1018600006000220ADF808000820ADF80A0040018B
:10187000ADF80C000020ADF80E0069463A4800F0C3
:101880001EFE0821384801F04DF91FBD08B50121A1
:10189000022000F04AFC0121084600F039FC012139
:1018A000082000F035FC0120ADF8000018208DF86C
:1018B000030003208DF8020069462A4800F08CF9E5
:1018C00008BD0EB541F27070ADF804000920ADF806
:1018D00000000020ADF80600ADF80200694623487C
:1018E00000F053FD0121214801F0D6F801211F48E5
:1018F00000F0D1FF01211D4800F0D9FF0EBD1FB53A
:1019000004466020ADF80000012C03D10120ADF8A1
:10191000020002E00020ADF802004FF47A70ADF84A
:1019200006000020ADF808006946104800F046FDAA
:1019300008210E4801F0E0F801210C4801F0ACF854
:1019400001210A4800F0A7FF1FBD10B5FFF7EAFE0E
:10195000FFF700FF10BD10B5FFF798FFFFF7B1FFCD
:1019600010BD0000000C0140002C014000040040AC
:1019700008B50121042000F0CBFB0820ADF80000E1
:1019800000208DF8030069463B4800F025F908BDAA
:1019900000B591B00121084600F0ADFB374801F0D9
:1019A00085FC3748069037480790002008900120B2
:1019B000099000200A900B904FF480700C908000EA
:1019C0000D9020200E9000020F900020109006A98C
:1019D0002A4801F004FD0121284801F02BFD0121D6
:1019E000480200F095FB0020019001208DF80800CE
:1019F0008DF809004FF4602003900020049001202E
:101A00008DF8140001A91E484C3801F064FA052332
:101A1000012203211A484C3801F0F5FA0121184837
:101A20004C3801F08FFA012115484C3801F07FFA4B
:101A300013484C3801F09DFA00BF11484C3801F0B2
:101A40009DFA0028F9D10E484C3801F0A1FA00BFE8
:101A50000B484C3801F0A1FA0028F9D101210848BF
:101A60004C3801F0A4FA11B000BD10B5FFF780FFAB
:101A7000FFF78EFF10BD0000000801400800024083
:101A80004C2401404600002008B54FF4E06000F00F
:101A9000A3FB1C208DF8000000208DF8010003201E
:101AA0008DF8020001208DF80300684600F099FBD4
:101AB00008BD3EB504460121084600F036FB4FF054
:101AC000804000F0F7FBA0B2ADF804004720ADF86D
:101AD00000000020ADF8020069464FF0804000F0A1
:101AE00054FC0121880701F0B1F901221146900749
:101AF00000F0ECFE0121880700F0CDFE0121084630
:101B000000F013FB3EBD000010B50446C649601A44
:101B10008C422FD009DCC548204480B1B0F5806FDD
:101B200016D0B0F5006F4AD11BE0B0F5806F2AD017
:101B3000B0F5006F30D0B0F5406F40D135E00121F5
:101B4000042000F0FFFA0021042000F0FBFA37E047
:101B50000121082000F0F6FA0021082000F0F2FA36
:101B60002EE00121102000F0EDFA0021102000F0FD
:101B7000E9FA25E00121202000F0E4FA00212020EC
:101B800000F0E0FA1CE00121402000F0DBFA002127
:101B9000402000F0D7FA13E00121802000F0D2FAB3
:101BA0000021802000F0CEFA0AE00121080200F0B6
:101BB000C9FA00214FF4807000F0C4FA00E000BFC1
:101BC00000BF10BD10B50121084600F0BBFA00218E
:101BD000012000F0B7FA10BD2DE9F04102460025C2
:101BE0000026002000230024002791F803C00CF0F9
:101BF0000F0591F803C00CF0100CBCF1000F03D0DE
:101C000091F802C04CEA050591F800C0BCF1000F44
:101C100031D0146800202BE04FF0010C0CFA00F3D7
:101C2000B1F800C00CEA03069E4220D183004FF0B9
:101C30000F0C0CFA03F7BC4305FA03FC4CEA04044E
:101C400091F803C0BCF1280F06D14FF0010C0CFA3B
:101C500000FCC2F814C00AE091F803C0BCF1480FC0
:101C600005D14FF0010C0CFA00FCC2F810C0401C6A
:101C70000828D1D31460B1F800C0BCF1FF0F34DDE7
:101C8000546800202EE000F1080C4FF0010808FA1B
:101C90000CF3B1F800C00CEA03069E4221D1830088
:101CA0004FF00F0C0CFA03F7BC4305FA03FC4CEAA7
:101CB000040491F803C0BCF1280F05D100F1080C11
:101CC00008FA0CF8C2F8148091F803C0BCF1480F70
:101CD00007D100F1080C4FF0010808FA0CF8C2F81F
:101CE0001080401C0828CED35460BDE8F0814FF628
:101CF000FF710180022181700421C170704702468A
:101D0000002093680B400BB1012000E000207047D9
:101D10000146886880B2704702460020D3680B40B5
:101D20000BB1012000E0002070470146C86880B276
:101D3000704701617047416170470AB1016100E07D
:101D400041617047C16070474FF480320A4382613D
:101D50008161826182698269704702460020344B4A
:101D600018684FF68073184040EA02100843304B61
:101D7000186070472F49C8617047F0B50A460023C4
:101D80000024002100252A4E7168C0F3034583B268
:101D900000F44016B6F5401F08D121F07061244EC2
:101DA000766826F07066224F7E6012E000F480169E
:101DB000B6F5801F06D1032606FA05F4A14341F0CB
:101DC000706106E0460D360103FA06F6B14341F0B4
:101DD000706122B1460D360103FA06F63143144E06
:101DE0007160F0BD30B500228B071C0F0F2303FA82
:101DF00004F20F4B08338C1053F8243093430C4CEF
:101E000008348D1044F8253023468C1053F82430C4
:101E10008C07240F00FA04F42343054C08348D107A
:101E200044F8253030BD00000014014000F8FEBF2A
:101E30000000014000002042DE48006840F0010040
:101E4000DC49086008464068DB490840D9494860D9
:101E500008460068D9490840D64908600846006825
:101E600020F4802008600846406820F4FE004860A6
:101E7000002088607047CF49096821F48031CD4A3D
:101E800011601146096821F480211160B0F5803F8E
:101E900003D0B0F5802F0ED106E0C649096841F4A1
:101EA0008031C44A116007E0C249096841F4A021A9
:101EB000C04A116000E000BF00BF704710B5014686
:101EC0000022002300204A11012A02D1B94C2368C4
:101ED00006E0022A02D1B74C236A01E0B54C636ADE
:101EE00001F01F02012494401C400CB1012000E0CD
:101EF000002010BD38B5002000900024002500BF50
:101F00003120FFF7DBFF05460098401C00901DB90B
:101F10000098B0F5A06FF3D13120FFF7CFFF08B1E3
:101F2000012400E00024204638BD01460020A14ADB
:101F3000106820F0F80040EAC10010607047A04926
:101F400008607047024600209A4B586820F47C10C5
:101F500042EA01031843974B586070479849086656
:101F6000704701460020934A506820F00300084360
:101F7000506070478F48406800F00C007047014681
:101F800000208C4A506820F0F000084350607047F1
:101F900001460020874A506820F4E0600843506002
:101FA000704701460020834A506820F4605040EAA0
:101FB000C1005060704729B17E4A527A02437D4B7E
:101FC0005A7204E07B4A527A82437A4B5A727047C3
:101FD0007B49D8310860704701460020754A506837
:101FE00020F440400843506070470021714A20327D
:101FF0001170704A82F82010012802D004280AD1FA
:1020000004E001216B4A2032117005E00521694A84
:102010002032117000E000BF00BF704769490860BE
:1020200070476449096A0143624A11627047654911
:1020300044390860704730B5002100220024002395
:102040005C4D6D6805F00C0121B1042905D008290B
:1020500023D105E05C4D056022E05B4D05601FE08B
:10206000544D6D6805F47012022505EB9242514DF6
:102070006D6805F480341CB9544D554305600BE080
:102080004C4D6D6805F400351DB1504D554305604C
:1020900002E04D4D5543056002E04B4D056000BF29
:1020A00000BF444D6D6805F0F0010909484D6B5CB7
:1020B0000568DD4045603F4D6D6805F4E061090A43
:1020C000434D6B5C4568DD4085603A4D6D6805F4B5
:1020D0006051C90A3E4D6B5C4568DD40C560354DB9
:1020E0006D6805F44041890B3A4D6B5CC568B5FBE2
:1020F000F3F5056130BD29B12E4A526902432D4BDB
:102100005A6104E02B4A526982432A4B5A61704754
:1021100029B1284A92690243264B9A6104E0254A74
:1021200092698243234B9A61704729B1214AD2694F
:102130000243204BDA6104E01E4AD26982431D4B00
:10214000DA61704729B11B4AD2680243194BDA6041
:1021500004E0184AD2688243164BDA60704729B10E
:10216000144A12690243134B1A6104E0114A1269BE
:102170008243104B1A61704712494039086070471A
:102180000F49C86470470B49C87170470948406AD5
:1021900040F0807007494862704701460020054AB8
:1021A00092680A400AB1012000E00020704701490E
:1021B00088727047001002400000FFF8FFFFF6FE33
:1021C000000042428004424200127A0000093D00B1
:1021D000480000205800002031490143314A116075
:1021E000704770B5002100230F22C47804B32D4C32
:1021F000246804F4E064C4F5E064210AC1F1040336
:10220000CA40447804FA03F1847814402143090158
:10221000254C0678A155047804F01F050124AC4034
:1022200005786D11AD0005F1E025C5F8004109E024
:10223000047804F01F050124AC401C4D067876118B
:1022400045F8264070BD1A4A0A400243154B1B1F31
:102250001A60704739B1134A121D12680243114BBC
:102260001B1D1A6006E00F4A121D126882430D4BB7
:102270001B1D1A607047042808D14FF0E02109693E
:1022800041F004014FF0E022116107E04FF0E0213E
:10229000096921F004014FF0E0221161704700004C
:1022A0000000FA050CED00E000E400E080E100E051
:1022B00080FFFF1F10B50446F749601A8C4245D0D5
:1022C0000CDCB4F1804F1DD0F448204418B3B0F5B5
:1022D000806F29D0B0F5006F54D12EE0B0F5806F3B
:1022E0003DD0B0F58E3F03D0B0F5923F4AD13FE0EC
:1022F0000121C802FFF726FF00214FF40060FFF71D
:1023000021FF40E001210846FFF729FF00210120BD
:10231000FFF725FF37E001210220FFF720FF002112
:102320000220FFF71CFF2EE001210420FFF717FF1A
:1023300000210420FFF713FF25E001210820FFF70B
:102340000EFF00210820FFF70AFF1CE001211020EA
:10235000FFF705FF00211020FFF701FF13E0012127
:102360002020FFF7FCFE00212020FFF7F8FE0AE006
:1023700001214803FFF7E6FE00214FF40050FFF76C
:10238000E1FE00E000BF00BF10BD028802F08F0236
:102390000280CA884B881A4303881A4302808A88BD
:1023A00082850A880285BE4A904202D0BD4A904288
:1023B00001D10A7A028601228282704770B5002418
:1023C00000220023058C4FF6FE7635400584028CF2
:1023D0008388048B4FF68F752C400D882C43751E17
:1023E0002A400D892A434D882A43CD888586AC4DE5
:1023F000A84202D0AB4DA84213D14FF6F7752A4040
:102400004D892A434FF6FB752A408D882A4347F6AB
:10241000FF652B4047F6FF552B408D892B43CD8917
:102420002B4383800483028470BD70B50024002296
:102430000023058C4FF6EF7635400584028C8388A7
:10244000048B48F6FF752C400D884FF6FF7606EAA0
:1024500005252C434FF6DF752A400D8906EA051540
:102460002A434D8806EA05152A43CD8805878C4DF9
:10247000A84202D08B4DA8421DD14FF67F752A404D
:102480004D894FF6FF7606EA05152A434FF6BF75CC
:102490002A408D8806EA05152A4347F6FF352B406A
:1024A00047F2FF752B408D8906EA85052B43CD89C0
:1024B00006EA85052B4383800483028470BD70B5D2
:1024C000002400220023058C4FF6FF66354005846A
:1024D000028C8388848B4FF68F752C400D882C439B
:1024E0004FF6FF552A400D894FF6FF7606EA05257F
:1024F0002A434D8806EA05252A43CD888587684DFD
:10250000A84202D0674DA8421DD14FF2FF752A4064
:102510004D894FF6FF7606EA05252A434FF6FF352B
:102520002A408D8806EA05252A4346F6FF752B408A
:1025300045F6FF752B408D8906EA05152B43CD899D
:1025400006EA05152B4383808483028470BD70B531
:10255000002400220023058C4EF6FF7635400584CA
:10256000028C8388848B48F6FF752C400D884FF6CB
:10257000FF7606EA05252C434DF6FF752A400D89A6
:1025800006EA05352A434D8806EA05352A43CD88F3
:10259000A0F84050424DA84202D0424DA84207D177
:1025A000C3F30D038D894FF6FF7606EA85152B439D
:1025B00083808483028470BD828B4FF2FF331A4084
:1025C0008283828B4FF6FF7303EA01231A438283CF
:1025D0007047F0B50C461546002100220026078CF6
:1025E0004EF6FF7C07EA0C070784818B028C4FF6BE
:1025F000FF7707EA043640F6FF4739404FF6FF778A
:1026000007EA05274FF6FF7C0CEA033C47EA0C0774
:1026100039434DF6FF773A4046F480573A43818379
:102620000284F0BD828B4FF6F3731A408283828B53
:102630000A4382837047F0B50C46154600210022FC
:102640000026078C4FF6FF6C07EA0C070784818B86
:10265000028C4FF6FF7707EA04264FF60C773940D5
:102660004FF6FF7707EA03172F4339434FF6FF571B
:102670003A4046F480773A4381830284F0BD028B6E
:102680004FF2FF331A400283028B4FF6FF7303EAC7
:1026900001231A43028370470010004000FCFFBF73
:1026A000002C014000340140F0B50C4615460021D5
:1026B00000220026078C4FF6EF7C07EA0C07078400
:1026C000018B028C4FF6FF7707EA041640F6FF47AE
:1026D00039404FF6FF7707EA033739434FF6FF7764
:1026E00007EA052739434FF6DF773A4046F01007EF
:1026F0003A4301830284F0BD028B4FF6F3731A4014
:102700000283028B0A4302837047F0B50C461546DC
:1027100000210022068C4FF6FE773E400684018B96
:10272000028C4FF60C7631407E1C06EA03162E43CF
:1027300031437E1E324044F001063243018302845D
:10274000F0BD70B505460C46208850B92389A28893
:1027500061882846FFF7D9FFE1882846FFF7CCFFBC
:1027600025E0208804280AD12389A2886188284688
:10277000FFF79AFFE1882846FFF781FF17E02088DE
:1027800008280AD12389A28861882846FFF753FFC9
:10279000E1882846FFF746FF09E02389A28861887F
:1027A0002846FFF716FFE1882846FFF705FF70BDB2
:1027B0002DE9F04105460C4600260127608808B93E
:1027C000022600E00026A088012801D1022700E0AF
:1027D00001272088A0B92389A28861882846FFF7AD
:1027E00094FFE1882846FFF787FF23893A46314660
:1027F0002846FFF759FFE1882846FFF740FF13E01E
:102800002389A28861882846FFF74EFFE188284681
:10281000FFF735FF23893A4631462846FFF775FF13
:10282000E1882846FFF768FFBDE8F0810A884B88F9
:102830001A438B881A43CB881A430B891A434B8956
:102840001A438B891A43A0F8442070474FF6FF7152
:10285000818000210180C180418001727047002188
:10286000018041808180C180018141818181C1815C
:102870007047002101804180012181800021C180B9
:10288000018170470021018041808180C1800181E8
:1028900041818181704721B1028842F001020280AA
:1028A00004E0028840F2FE331A400280704731B1E2
:1028B000B0F8442042F40042A0F8442005E0B0F80B
:1028C0004420C2F30E02A0F8442070471AB1838955
:1028D0000B43838102E083898B438381704781822C
:1028E000704741EA0203A0F8483070471AB1838963
:1028F0000B43838102E083898B4383817047018985
:102900004FF6F8721140018170470A460021018993
:102910004FF68F73194011430181704730B504465B
:102920000D4629462046FFF7F0FF208940F00700BA
:10293000208130BD2DE9F04104460D4616461F4664
:10294000602D06D13B46012231462046FFF7ACFE02
:1029500005E03B46012231462046FFF7D6FE2946D8
:102960002046FFF7D2FF208940F007002081BDE814
:10297000F08170B50C4600210189C9B244EA020514
:102980004FF6FF7606EA032635432943018170BDE1
:102990002DE9F04105460E46174698460024434669
:1029A0003A4631462846FFF7E4FF2C894FF6F87087
:1029B000044044F007044FF68F70044044F0700464
:1029C0002C81BDE8F081F0B504460D4616461F4641
:1029D0003B46324629462046FFF7CBFF208940F48C
:1029E00080402081F0BD0185828270470A46002127
:1029F000018840F28F331940114301807047F0B5D0
:102A00000C4615461E460021002200230189028B38
:102A1000038C4FF6F877394021434FF6FC473A4094
:102A200040F201173A434FF6DD773B404FF6FF7710
:102A300007EA06172F433B43018102830384F0BD5D
:102A40000A460021018B4FF68F7319401143018311
:102A500070470A460021018B48F6FF7319404FF674
:102A6000FF7303EA02231943018370470A460021DA
:102A7000818B4FF68F7319401143818370470A464B
:102A80000021818B48F6FF7319404FF6FF7303EA6C
:102A9000022319438183704721B1028842F08002EA
:102AA000028004E0028840F27F331A4002807047BF
:102AB00021B1828842F00402828004E082884FF6CD
:102AC000FB731A408280704721B1828842F008026D
:102AD000828004E082884FF6F7731A408280704744
:102AE00021B1828842F00102828004E082884FF6A0
:102AF000FE731A40828070470A460021018B4FF610
:102B0000F77319401143018370470A460021018B76
:102B10004FF2FF7319404FF6FF7303EA0223194384
:102B2000018370470A460021818B4FF6F7731940E5
:102B30001143818370470A460021818B4FF2FF7356
:102B400019404FF6FF7303EA02231943818370474C
:102B50000A460021018B4FF6FB7319401143018394
:102B600070470A460021018B4FF6FF3319404FF69C
:102B7000FF7303EA02231943018370470A460021C9
:102B8000818B4FF6FB7319401143818370470A46CE
:102B90000021818B4FF6FF3319404FF6FF7303EA94
:102BA00002231943818370470A460021018B4FF6A7
:102BB0007F7319401143018370470A460021018B3E
:102BC000C1F30E014FF6FF7303EA02231943018399
:102BD00070470A460021818B4FF67F7319401143DD
:102BE000818370470A460021818BC1F30E014FF6A5
:102BF000FF7303EA02231943818370470A460021C9
:102C0000018C4FF6FD7319401143018470470A4649
:102C10000021018C4FF6F77319401143018470476E
:102C20000A460021018C4FF6DF7319404FF6FF73FF
:102C300003EA02131943018470470A460021018CFC
:102C40004FF67F7319404FF6FF7303EA02131943DF
:102C5000018470470A460021018C4FF6FF5319404A
:102C60004FF6FF7303EA02231943018470470A46B3
:102C70000021018C4FF2FF7319404FF6FF7303EAF6
:102C800002231943018470470A460021018C4DF646
:102C9000FF7319404FF6FF7303EA023319430184AF
:102CA000704710B5038C01248C40A3430384038C2C
:102CB00002FA01F4A4B22343038410BD10B5038CBF
:102CC00004248C40A3430384038C02FA01F4A4B2CD
:102CD0002343038410BD30B5038C01248C40A343EF
:102CE000038409B1082918D100F1180303EB61032B
:102CF0001B684FF68F74234000F1180404EB610445
:102D0000236000F1180303EB61031B68134300F118
:102D1000180404EB610423601FE00B1FC3F34E048F
:102D200000F118031B5948F6FF7423400C1FC4F32D
:102D30004E0500F1180463510B1FC3F34E0400F15C
:102D400018031B594FF6FF7404EA022423430C1F97
:102D5000C4F34E0500F11804635130BD21B102885F
:102D600042F00202028004E0028840F2FD331A4081
:102D70000280704721B1028842F00402028004E020
:102D8000028840F2FB331A400280704721B18288EA
:102D900042F08002828004E082884FF67F731A40FE
:102DA00082807047028840F2F7331A40028002881E
:102DB0000A430280704782884FF68F731A408280E0
:102DC00082880A438280704702894FF6F8731A405E
:102DD000028102890A430281704702894FF67F739C
:102DE0001A40028102890A43028170478184704738
:102DF000818570478186704701877047818770475A
:102E0000A0F8401070470288D2B2028002880A43BC
:102E1000028070470146888E70470146088F7047D0
:102E20000146888F70470146B1F84000704701465F
:102E3000888C70470146088D704702460020138A2F
:102E40000B400BB1012000E000207047CA43028212
:102E5000704730B50246002000230024158A05EA99
:102E60000103958905EA010413B10CB1012000E0CA
:102E7000002030BDCA4302827047000010B50446EE
:102E8000F748204430B1B0F5806F0DD0B0F5C05F89
:102E90001ED113E001214802FFF754F900214FF43D
:102EA0000070FFF74FF914E001218802FFF74AF99B
:102EB00000214FF48060FFF745F90AE00121C803C3
:102EC000FFF740F900214FF40040FFF73BF900E025
:102ED00000BF00BF10BD30B502460020002350687F
:102EE000E04C20400D790C6844EA052420435060F2
:102EF0009068DD4C2040D1E902542C434D7944EADE
:102F0000450420439060D06A20F470000C7C641E5D
:102F10001C43E3B240EA0350D06230BD002101609F
:102F2000017141718160C16001210174704721B15B
:102F3000826842F00102826003E0826822F00102AE
:102F40008260704721B1826842F48072826003E03F
:102F5000826822F480728260704710B50023CBB281
:102F60001AB144681C43446002E044689C434460D6
:102F700010BD816841F00801816070470146002062
:102F80008A6802F008020AB1012000E000207047C0
:102F9000816841F0040181607047014600208A6821
:102FA00002F004020AB1012000E00020704721B1C4
:102FB000826842F4A002826003E0826822F4A002E8
:102FC00082607047014600208A6802F480020AB1DC
:102FD000012000E00020704710B50A4600210023C0
:102FE000416821F46041531E41EA4331416010BD04
:102FF00021B1426842F40062426003E0426822F478
:10300000006242607047F0B504460D460020002182
:10301000092D11DDE068A5F10A0606EB4607072633
:1030200006FA07F18843A5F10A0606EB460603FAFD
:1030300006F10843E0600CE0206905EB4507072630
:1030400006FA07F1884305EB450603FA06F1084343
:103050002061072A0FDA606B561E06EB86071F26D3
:1030600006FA07F18843561E06EB860605FA06F1B6
:103070000843606322E00D2A0FDA206BD61F06EBAF
:1030800086071F2606FA07F18843D61F06EB860639
:1030900005FA06F10843206310E0E06AA2F10D068C
:1030A00006EB86071F2606FA07F18843A2F10D06F4
:1030B00006EB860605FA06F10843E062F0BD21B191
:1030C000826842F48012826003E0826822F48012F7
:1030D000826070470146C86C80B2704763480068E0
:1030E000704721B1426842F48062426003E0426866
:1030F00022F480624260704721B1426842F48052FB
:10310000426003E0426822F48052426070470A46FF
:103110000021816821F4E04111438160704721B1B1
:10312000826842F40042826003E0826822F4004236
:103130008260704721B1826842F40212826003E02B
:10314000826822F4021282607047014600208A6879
:1031500002F400120AB1012000E000207047F0B52F
:1031600004461546002000220026092911DDE068EA
:10317000A1F10A0707EB470C072707FA0CF2904367
:10318000A1F10A0707EB470703FA07F21043E060D3
:103190000CE0206901EB410C072707FA0CF2904381
:1031A00001EB410703FA07F210432061A06BC0F363
:1031B0000156EF1C06F1010CA7EB0C0707EB870C7F
:1031C0001F2707FA0CF29043EF1C06F1010CA7EB46
:1031D0000C0707EB870701FA07F21043A063F0BD65
:1031E00010B50A4600210023816B21F44011531EC3
:1031F00041EA0351816310BD4250704702465018A6
:10320000806A80B270470A4600214168184B194015
:103210001143416070474162826270470A46002153
:10322000416821F01F0111434160704740B10F49CF
:103230004439096841F400010C4A443A116007E03E
:103240000A494439096821F40001084A443A1160E6
:1032500070470246002013680B405BB101200AE072
:1032600000DCFEBFFFFEF0FFFDF7F1FF4C24014044
:10327000FFFD3FFF00207047CA430260704770B5F2
:1032800002460020002300240B125568CEB205EA46
:10329000060415681D4015B10CB1012000E00020A6
:1032A00070BD00220A12D34303607047016821F009
:1032B000010101600021016041608160C160874AB5
:1032C000811A90425BD012DC854AA0EB0201904249
:1032D0003AD007DC83490144D9B1142922D02829E6
:1032E0007AD128E0142938D0282975D13EE0B1F5EB
:1032F0006C7F5BD006DCB1F5627F49D0B1F5677FAA
:103300006AD14CE0B1F5717F57D0B1F5767F63D1CA
:103310005BE073494439496841F00F01704A443A0F
:1033200051605AE06E494439496841F0F0016C4AF5
:10333000443A516051E06A494439496841F4706146
:10334000674A443A516048E065494439496841F464
:103350007041634A443A51603FE0614944394968E9
:1033600041F470215E4A443A516036E05C49443988
:10337000496841F470015A4A443A51602DE0584975
:103380004439496841F07061554A443A516024E03B
:103390005549096841F00F01534A11601DE0524937
:1033A000096841F0F001504A116016E04E49096881
:1033B00041F470614C4A11600FE04B49096841F4D7
:1033C0007041494A116008E006E04749096841F444
:1033D0007021454A116000E000BF00BF704710B582
:1033E0000022026847F6F0739A430C6A8B68234305
:1033F0000C6923434C6923438C692343CC692343E1
:103400004C6A23438C6A23431A430260CB684360AF
:103410000B6883604B68C36010BD00210160416090
:103420008160C160016141618161C161016241628C
:103430008162704721B1026842F00102026003E03C
:10344000026822F00102026070471AB103680B4360
:10345000036002E003688B430360704701464868DD
:1034600080B2704701460020002201F080531BB15A
:103470001D4B1B1F1A6802E0194B443B1A6802EAF5
:1034800001030BB1012000E00020704700F08051E3
:1034900011B11549086002E011494439486070478C
:1034A00001460020002201F080531BB10E4B1B1F70
:1034B0001A6802E00A4B443B1A6802EA01030BB1A6
:1034C000012000E00020704700F0805111B1064952
:1034D000086002E0024944394860704780000240B9
:1034E00044000240F8FFFDBF040402400CB5002078
:1034F000019000904748006840F4803045490860DA
:1035000000BF4448006800F4003000900198401C5F
:103510000190009818B90198B0F5A06FF1D13D481D
:10352000006800F4003010B10120009001E000209C
:1035300000900098012844D13748006840F01000FE
:10354000354908600846006820F003000860084616
:10355000006840F0020008602E4840682D4948602D
:103560000846406848600846406840F4806048600B
:103570000846406820F47C1048600846406840F4E3
:10358000E81048600846006840F08070086000BF9E
:103590002048006800F000700028F9D01D484068FD
:1035A00020F003001B4948600846406840F00200D4
:1035B000486000BF1748406800F00C000828F9D1A7
:1035C00001E000BFFEE70CBD10B5FFF78FFF10BD97
:1035D00010B51048006840F001000E490860084628
:1035E00040680E4908400B494860084600680C498D
:1035F0000840084908600846006820F480200860F8
:103600000846406820F4FE00486000208860FFF70C
:10361000DBFF10BD00100240002002400000FFF858
:10362000FFFFF6FE00BFFEE7012806D0022805D006
:10363000032804D0042804D102E003E002E001E002
:1036400000E000BF00BF00BFFEE71A4810B50078D9
:1036500048B101F0EDF930B1174900EB400001EB42
:103660004010603810BD154810BD154A10B51169DD
:103670000346082900D3FEE7124800EB0110491C5D
:103680001860116100F0B2FD012010BD09490978F0
:10369000002905D000684FF6FF71DFF82CC000DF6D
:1036A000704704490978002903D00068DFF81CC07E
:1036B00000DF704781000020280F00202C1400201C
:1036C0005C00002048130020D5420008FD4100089E
:1036D000004870472C14002010B50446AFF300805A
:1036E0002046BDE81040FCF76EBD7047704770473C
:1036F00001491820ABBEFEE7260002007546FFF721
:10370000E7FFAE4605006946534620F007008546B0
:1037100018B020B5FCF716FEBDE820404FF00006BB
:103720004FF000074FF000084FF0000B21F00701A9
:10373000AC46ACE8C009ACE8C009ACE8C009ACE8EC
:10374000C0098D46704770470000000010B5002A80
:1037500006DA22F00042D21D22F00703102203E015
:10376000D21C22F003030C2213B19C188C4201D905
:10377000012010BD024401448360C0E90021C91A40
:10378000D018884202D810600246F9E70020106085
:1037900010BD000008480068C0010BD5074800684C
:1037A000C00707D0054880380068002802DA0449BD
:1037B0000120087070470000FCED00E0800E00E082
:1037C000A40000204FF06042D36F002BFCD0036BAD
:1037D000D367D36F002BFCD0C07840EA0120A2F859
:1037E0007C0070474FF06041CA6F002AFCD081F81E
:1037F0007C0070470EB5802200B109B110460AE086
:1038000001780129FAD101A900F046F8042801D075
:10381000002000E01020DDE9011203B000BD70B50A
:103820000D46040003D012B92078012801D0802071
:1038300070BD204600F088FB28B12946204600F0E4
:1038400054F8002070BD812070BD70B50C4600F0AA
:103850008BFF4FF0004108B1220C01D0084670BD2B
:10386000058BC178A0B200F003F8284670BD0000B7
:103870000A460146074810B500EB820050F8040CD8
:10388000002805D000F0A8FDBDE8104000F094BD70
:1038900010BD0000DC0E002010B504468089002811
:1038A00022D0608904EB80000069086060780228FB
:1038B00005D10021204600F08FFD00F07DFD04F1D0
:1038C0000C0000BFD0E85F1F491E8AB2C0E8512F2C
:1038D0000029F7D16089401C80B26081E18988426B
:1038E00001D100206081042010BD10B500F074FDEE
:1038F000BDE8104000F060BDEFF3058109B1822002
:103900007047DFF808C000DF70470000414A000838
:10391000EFF3058008B182207047EFF31480C007F1
:1039200003D0DFF80CC000DF704701F093B800004F
:10393000554A000888B0EFF3058010B1822008B026
:103940007047EFF3148010F00301134806D00129EB
:103950001BD0022911D0032919D113E008A981F342
:1039600009880078C0070BD05FF0020080F314884C
:10397000BFF34F8FBFF36F8F09E00078C00706D108
:103980000320F3E70078C00701D0FF20D7E7DFF876
:103990000CC000DFD3E70000FC4E0008C54A000859
:1039A000EFF305820AB100207047EFF31482064B53
:1039B00002F001025B781A4303D0DFF810C000DF89
:1039C000704701F0A3B80000800000200D4B0008F4
:1039D000EFF305820AB1FFF70DBFDFF808C000DF83
:1039E00070470000314B0008EFF305830BB1FFF780
:1039F00016BFDFF808C000DF704700006B4B0008FF
:103A0000EFF3058139B9EFF31481C90703D0DFF86B
:103A10000CC000DF704701F081B900001D4D0008A7
:103A2000EFF3058109B100207047EFF31481064AD6
:103A300001F001015278114303D0DFF810C000DF1C
:103A4000704701F0ADB8000080000020A14B0008D5
:103A5000EFF305823AB9EFF31482D20703D0DFF80F
:103A60000CC000DF704701F05EB90000274D000870
:103A7000EFF305820AB1FFF7E8BEDFF808C000DF08
:103A800070470000C94B0008EFF305830BB182209B
:103A90007047DFF808C000DF70470000ED4B0008FA
:103AA000EFF305820AB100207047EFF31482064B52
:103AB00002F001025B781A4303D0DFF810C000DF88
:103AC000704701F0BDB8000080000020414C0008A4
:103AD000DFF80CC000DFDFF80CC000DFFEE70000FD
:103AE000B14C0008CD4C0008DFF804C000DF70477F
:103AF000054D0008094C4FF0FF3529462068FFF7B7
:103B000067FF02460846102AF7D1FFF7EDFF0028AD
:103B1000F3D0024608469047EFE70000600000201F
:103B2000074801684FF0E0204161002181610721D1
:103B300001610448016841F07F410160401770470E
:103B4000F84E000820ED00E0704750E8001F31B14A
:103B50000B6840E80032002AF7D108467047BFF3EF
:103B60002F8FFAE710B568B161B10B3121F0030274
:103B7000016844680B1A1B1B934205D2084609686A
:103B80000029F5D1002010BD210007D021180368BD
:103B9000C1E90032016001F1080010BD4260083047
:103BA00010BD000070B50D46002812D04FF6FF7111
:103BB000084C884204D222680146104600F03AFCC4
:103BC00020684570044800F029F9BDE8704000F015
:103BD000F5BC70BD88000020FC1300200F4810B514
:103BE0000D4942680E480B680068934204D00A6091
:103BF000CB88421E1A448A808A8880B282420AD1C7
:103C000000200860054800F009F90146BDE81040B1
:103C1000024800F033BC10BD9C000020FC130020C3
:103C20009800002070B5194DE86800282CD0A88AAB
:103C3000401EA882002621E0A06838B1616841607A
:103C4000606810B1A16881606660A6600F48214677
:103C5000183800F013FCA08AA8826078042804D1E8
:103C60000B49E08A09880844A08201206070E0685E
:103C7000E860E06808B10561E6602661A88A00286E
:103C800002D1EC68002CD7D170BD000014140020C4
:103C90009800002070B504000FD00D4DA1780126CA
:103CA0002868827891420CD900F004FC286846709C
:103CB0002046BDE8704000F081BC064800F0AEF838
:103CC000F7E766702146BDE87040024800F0D6BBB9
:103CD00088000020FC1300200321FFF763BF0000D1
:103CE00010B50446008B084320836278618B062A56
:103CF00018D0052A19D1084217D001EA00026283C0
:103D000088432083204600F000FC01206070628B15
:103D10000821204600F0F5FB2146BDE8104003488D
:103D200000F0ACBB31EA0002EAD010BDFC13002069
:103D30000246154810B500EB810050F8044C002CE9
:103D400021D0208B104320836278618B062A17D004
:103D5000052A18D1084216D001EA0002628388437E
:103D60002083204600F0D1FB01206070628B082187
:103D7000204600F0C6FB2046BDE81040FFF78ABF92
:103D800031EA0002EBD010BDDC0E002070B5034616
:103D90000C480D460468208B42B133EA000101D083
:103DA000062109E098432083022070BD10EA030138
:103DB00001D06183F6E7052163832846FFF7F2FE11
:103DC000012070BD88000020814202D342688A42EF
:103DD00001D80120704702680A60BFF35F8F50E886
:103DE000003F0A689A42F6D140E80012002AF2D158
:103DF0000020704768B161B10022083902E0024634
:103E0000006830B18842FAD12AB100681060002001
:103E100070470120704700214160F8E70146406883
:103E200042684A600B780022022B05D0012B03D098
:103E3000032B01D04260704743680BB19960426028
:103E400082607047810700D00020704770B504463B
:103E500000201546207001226270A17084F82410A1
:103E60006060A060E06020612062A082E082208328
:103E7000608384F82500E08C18B90548FFF765FEDB
:103E8000E06229462046BDE8704000F01DB8000001
:103E9000C804002008B1082901D20120704701445C
:103EA000091F002201600A6042601046704700004E
:103EB00003480021016003490988C1807047000060
:103EC0009C000020EC4E000870B5C28C1C4D93087D
:103ED00002D12A88C2F38D03C26A02EB830254071F
:103EE00000D5121F4FF0807442E9021400242646C8
:103EF000B2F1400242F82460641C0E2CFAD3C4696B
:103F00001462826201632968C90014D5112B12D989
:103F10004FF0FF31103B11EB53014FF0CC3305D084
:103F200042F8043C42F8083D491EF9D1C16A121F0B
:103F30008A4200D91360C06A0249016070BD000066
:103F4000E84E0008A52E5AE2C1898089081A7047F8
:103F5000012202700022427082704260028142811E
:103F6000103982818908C181704700002DE9F04134
:103F7000044640680E464FF0000804F10C05E8B313
:103F80006078012701283ED0022813D003285CD195
:103F90000846FFF7DAFD050057D02046FFF73EFF41
:103FA0000446294600F0AAFA6770204600F0ADFAF0
:103FB000214621E02046FFF731FF0646002100F0B0
:103FC0009DFA2189F06904EB81010861D5E85F0F52
:103FD000401C81B2C5E8501F0028F7D12089401C41
:103FE00080B22081E189884201D1A4F808807770ED
:103FF000304600F08AFA3146174800E00CE0BDE890
:10400000F04100F03BBA2046FFF708FF0446324675
:10401000102100F076FAC7E7A089E189884216D21C
:10402000208904EB80000661D5E85F0F401C81B257
:10403000C5E8501F0028F7D12089401C80B220819C
:10404000E189884201D1A4F80880BDE8F081BDE88B
:10405000F0410320FFF7E8BAFC13002070B51646C4
:1040600042680D4612B1417801290BD08189C4897B
:104070000023A14224D19EB11D4C216892B100F0D1
:10408000FDF916E0FFF7CAFE04462A46102100F0AB
:1040900038FA204600F039FA2046FFF7FBFD25E00C
:1040A000012070BD416021684B6021688860022159
:1040B000417020680821C5613046FFF773FDEFE7C6
:1040C000018900EB81010D6100F10C01D1E85F2F46
:1040D000521C94B2C1E8524F002AF7D10189491C01
:1040E00089B20181C289914200D10381002070BD53
:1040F0008800002070B50446808915460026C0B3AC
:10410000608904EB8000006908606089401C80B20F
:104110006081E189884200D16681606810B1607871
:1041200002280BD014F10C04D4E85F0F401E81B2BA
:10413000C4E8501F0028F7D1002070BD2046FFF7CB
:104140006DFE0546002100F0D9F92189E86904EBEC
:10415000810108612089401C80B22081E189884268
:1041600000D12681284600F0D0F92846FFF792FDBD
:10417000E2E7FFE73DB10B48626801682AB12046DB
:1041800000F07CF908E0012070BD616001684E60BC
:10419000006884600120607008212846FFF702FD56
:1041A000F1E7000088000020002814D0411C13D043
:1041B0000C4A4FF6FE7190420CD800EB4002C2EB65
:1041C000C0120948036803EBC202521EB2FBF3F0AF
:1041D000884204D9084670474FF6FF70704780B296
:1041E0007047000000093D00084F000803210170DE
:1041F0000021418041608160C16070472DE9F0413C
:104200000446408820B1314DA1682A68914202D00D
:10421000FF20BDE8F081401E0004000C608053D1F7
:104220002968086AA04209D1E068086208E0C2680B
:10423000A24202D1E268C26002E010460028F6D134
:1042400091F824000A6A06E053681BB19B78834208
:1042500000D91846D268002AF6D18870DFF870803D
:104260006168012611B32046FFF7D8FD07460021FB
:1042700000F044F9384600F048F96680A760386AD3
:10428000E0603C622968D8F804008A78807882422D
:1042900001D3384616E00E4800F0F0F839460C48D5
:1042A00000F0ECF8286846707E700AE0D8F8041038
:1042B0008A782968824207D9054800F0DFF8286823
:1042C00046700020FFF7E6FC0020A2E788000020EF
:1042D000FC13002070B5184D0E460446418828682E
:1042E00039B1A168814209D16088401C60800020FA
:1042F00070BDA060016AE1600462F5E776B18A787A
:104300008078824203D28870A06800F0DDF860688F
:1043100030B12046296800F0B1F808E0012070BDF6
:104320002868606029680020486028688460092146
:104330003046FFF737FCF1E78800002070B51B48D6
:10434000012102685170006800F0B4F8184D6C78D3
:1043500018E000BF05EBC40148680278EAB1012A01
:1043600020D000F0FFF8E878641C844200D10024DB
:104370000F48801CD0E84F1F491EC9B2C0E8421F39
:10438000002AF7D1A8780028E4D16C700948FFF71B
:1043900045FDBDE8704000F011B9098989B2FFF709
:1043A0009FFCE0E78968FFF7E1FDDCE7880000207B
:1043B000580E0020FC1300200548017811B101219E
:1043C0004170704703494FF080500860704700000B
:1043D0009000002004ED00E0F0B4154DAB1CEE7829
:1043E0004FEA0507D3E84F2FB24202D1BFF32F8F18
:1043F00011E0521CD4B2C3E8424F002AF2D100BFF0
:10440000D7E84F2F541CB44200D10024E4B2C7E8CF
:10441000434F002BF4D1EB78934205D905EBC20250
:10442000C2E90101F0BC7047F0BC0220FFF7FCB804
:10443000580E0020104A10B5D368ABB113469B8AC2
:1044400003E08CB12246A48A2344D4688B42F8D37B
:10445000C460D0600261C46804B12061591A8182CD
:10446000908A401A908210BD0024C460D060C91A9E
:1044700002619182848210BD1414002030B502784C
:104480000023022A03D0012A01D0032A00D10123EC
:104490008C7800E01046426812B19578A542F9D2B6
:1044A0004A6041601BB102B19160886030BD00205C
:1044B000FBE7000003494A684260002282604860CE
:1044C00070470000FC13002010B5836804462BB928
:1044D000607801280ED1084B03E09B68187800280B
:1044E000FBD0204600F026F82146BDE810401846D3
:1044F000FFF7C4BF10BD0000FC130020806A0162FA
:104500007047806AC0E90812704710B50169002938
:104510000ED0C268CA60C36800223BB18B8A848A0D
:1045200023448B82C3681961C26000E08A82026101
:1045300010BD0000816839B142684A6041680029B5
:1045400001D0806888607047054906E04A68824269
:1045500002D140684860704711460029F6D1704783
:10456000FC13002010B5416881B1FFF757FC0446E9
:10457000FFF7CBFF0120607001462046FFF7BEFF2A
:104580002146BDE810400348FFF778BF4188491C29
:10459000418010BDFC13002006480068D0E90A10D5
:1045A000814203D300680449884202D00120FFF70A
:1045B0003BB8704788000020A52E5AE20749022226
:1045C00048604270064A1278002A05D006C98A421D
:1045D00002D0C078FFF706B97047000088000020BD
:1045E000A400002070B5FFF7D5F800200446204A4B
:1045F000204902E042F82040401C0B889842F9D341
:104600001D48342201881D48FFF7A0F81C48008887
:1046100080B240F000421B4801681B48FFF796F843
:104620001A48082201881A480068FFF78FF8194DC8
:10463000FF20194AE870EC8400212846FFF706FCA9
:10464000164804210170446015480170C46004617B
:10465000848214481549056002206870124804706D
:1046600044700978C170BDE87040FFF721BC0000BC
:10467000DC0E0020E44E0008104F000880020020ED
:10468000E84E0008144F0008C8040020384F000806
:1046900068000020C813002025360008FC13002005
:1046A0001414002088000020580E00201C4F000821
:1046B0001B4810B5016841F47F01016000684FF0AC
:1046C0007F4101EA00201649C0431439B0FA80F056
:1046D0000968C0F10800C1F30221814200D3481CDF
:1046E0000F49091F0B686FF08072824063F3170255
:1046F0000A60FFF715FA0B49002808600EDB00F18D
:10470000E021FF2281F8002400F01F0201219140E6
:104710004009800000F1E020C0F8001110BD000049
:1047200020ED00E0940000200C4810B50268012143
:1047300051700068FFF7BEFEFFF750FA08480168A5
:10474000491C0160FFF76EFA00F0F8FA0548FFF720
:1047500065FBBDE81040FFF731BF00008800002076
:1047600098000020FC130020002805D0810702D10A
:104770000178002900D000207047000030B50B4CB4
:104780000023626805E095688D4204D813461268DC
:10479000491B002AF7D10260816012B19568691A3D
:1047A00091600BB1186030BD606030BD80000020AA
:1047B0002DE9F0411E46174680460D4611F0FF0FC9
:1047C00000D14D1C1848FFF7C0F9041E16D0280A66
:1047D000E762E084E9B242462046E661FFF736FB35
:1047E00001251248124905E000EB850252F8042C1D
:1047F00032B16D1C0A889542F6D90020BDE8F081DF
:10480000002DFAD000EB850040F8044C0948E57013
:10481000007818B101212046FEF7D4FF2046FFF7AB
:1048200039FA2846EAE7000080020020DC0E00206A
:10483000E44E0008A40000202DE9F05F584DDFF899
:104840005891DFF8588129684FF0010A002618B105
:10485000CA78AB46824243D14E70FBF7CCFC296844
:104860008862FFF799FE2868046A1FE06068C0B19B
:104870002046FFF7D3FA07460021FFF73FFE3846F0
:10488000FFF743FE87F801A039464648FFF7F6FDDB
:10489000E168A4F802A0A760386AE0603C620C46B8
:1048A00004E0E0686680A660E6600446002CDDD186
:1048B0002868C27808EB820141F8046CC16A3A4862
:1048C000FFF782FA2868C66299F8001011B100213A
:1048D000FEF778FF35482968FFF776FA2E6056E034
:1048E0003349098888420CD808EB800858F8045CE2
:1048F0003DB12846FFF71EFE2846FFF706FE2C6A4C
:1049000022E0FF20BDE8F09F6068C0B12046FFF7BD
:1049100085FA07460021FFF7F1FD3846FFF7F5FD60
:1049200087F801A039461F48FFF7A8FDE168A4F801
:1049300002A0A760386AE0603C620C4604E0E068D0
:104940006680A660E6600446002CDDD148F8046C61
:104950001548E96AFFF738FAEE6299F8000018B1D5
:1049600000212846FEF72EFF29461048FFF72CFAB3
:104970000C48DBF8001040688B7882789A4209D99D
:1049800081F801A00748DBF80010FFF777FD002051
:10499000FFF780F90020B5E7A4000020DC0E00201E
:1049A00088000020FC130020C804002080020020A2
:1049B000E44E000870B51A4D80B11A4A1288904230
:1049C0001FD8194A02EB800050F8044CCCB1A170FA
:1049D00084F824102868A04205D014E0286881706B
:1049E000286880F82410114840688078884215D9DA
:1049F0000E482968FFF742FD296801204870002011
:104A00000AE0FF2070BD2046FFF75EFD60780128B8
:104A100004D10648FFF702FAFFF73CF9002070BD09
:104A200088000020E44E0008DC0E0020FC1300206B
:104A300002480068002800D0C07870478800002035
:104A400010B5002804D0FFF7AFFBFFF745F9402071
:104A500010BD000010B5134C207860B91248400713
:104A600005D1124801681048FFF714FA08B18520F3
:104A700010BDFFF7B7FD0E49FF2009688870207848
:104A800058B900210B4800F041F80B49086000219B
:104A90000A4800F0D5F80A4908600120207000207B
:104AA000607010BD80000020A80C0020184F000886
:104AB00088000020304F000860000020204F0008D0
:104AC0005C00002070B50F4D687808B1002070BD03
:104AD0000D4C206890F824100020FFF76BFF206831
:104AE000C178FF2903D1816A203181F30988616887
:104AF00011B9606000202060FFF7DAFD01206870C6
:104B0000E4E70000800000208800002010B50400C9
:104B100005D0216819B1606808B102780AB1002097
:104B200010BD8900103189B2FFF712FA606810BD1C
:104B30003EB504000D464FF0800012D021780129C7
:104B40000FD12846FFF730FB0246204601A9FFF7A8
:104B5000D1FA012801D0102003E00DB1402000E07F
:104B60000020DDE9011203B030BD70B50E4604002F
:104B7000154602D02078012801D0802070BD104653
:104B8000FFF712FB024631462046FFF767FA01287D
:104B900001D0002070BD0DB1C12070BD812070BD5D
:104BA00010B504000ED0216861B1626852B1A068EE
:104BB00040B1D21C22F0030251430C31FEF7C6FD76
:104BC000A06810BD002010BD70B50C46FFF7CCFDED
:104BD0004FF0004108B1220C01D0084670BD058B92
:104BE000C178A0B2FFF7A4F8284670BD70B504469E
:104BF0000D46000C01D086201EE008462CB1FFF7C0
:104C0000D3FA0146A0B2012205E0FFF7CDFA014632
:104C100000224FF6FF70FFF7B9F8022802D04DB11D
:104C2000402008E008200CB1214605E0034909684E
:104C3000498B01E000200021324670BD8800002031
:104C400070B50E4604002BD0206848B3B4F90400B8
:104C500010F1030F24DB032822DCE16829B111489D
:104C6000FEF780FF05001BD000E00025B4F904002A
:104C7000E168001D40EA012133462A462068FFF71B
:104C800097FD40B1084901EB8000084950F8040C39
:104C9000826A516370BD1DB129460248FFF7AAF828
:104CA000002070BDA80C0020DC0E0020D13A0008C6
:104CB00010B5FFF7BDFE002804D0034901EB8000CA
:104CC00050F8040C10BD0000DC0E002010B5FFF7FA
:104CD0004BFD18B1C18C19B1C46A02E0802010BD2F
:104CE0000024C078FFF7A8FDFF2806D01CB121469C
:104CF0000348FFF77FF8002010BD812010BD0000A1
:104D0000A80C002010B5FFF79DF820B141690A6892
:104D10000169104610BD0020014610BD002801D0D9
:104D2000FEF713BF704710B528B1FFF74DF8002804
:104D300000D0862010BD802010BD00002DE9F0417C
:104D4000134E7468002C1CD0A068124F401E4FF008
:104D50000108A06012E025462468746000222946FC
:104D60003868FEF75CFD10B10420FEF75DFC687941
:104D7000012808D085F80480002C02D0A068002803
:104D8000E9D0BDE8F0812846E968FFF7F7FCF3E7D2
:104D90008000002060000020030000000A000000E6
:104DA000C800002003000000F800002003000000FD
:104DB0000A00000020010020030000005001002034
:104DC000030000000A00000078010020030000003A
:104DD000A8010020030000000A000000D00100200C
:104DE0000300000000020020030000000A00000091
:104DF000280200200300000058020020E3070008FA
:104E0000FEFF00000100000000000000C5090008CE
:104E1000FFFF000001000000000000006B0A000816
:104E2000010000000100000000000000090B000864
:104E3000000000000100000000000000F70B000867
:104E4000000000000100000000000000530D0008F9
:104E50000000000001000000000000001F11000819
:104E6000020000000100000000000000000C0140F2
:104E700080000000000C014000010000000801401B
:104E800000100000000C014020000000000C014058
:104E900040000000000C014000100000000C014028
:104EA000000200000010014000200000001001403E
:104EB0000040000000100140008000000008014098
:104EC00000080000000C014001000000000C01403F
:104ED00004000000000C0140020000000008014036
:104EE000100000000B000000C800020105000100D6
:104EF000001BB7000C000000DF2E000001000000C6
:104F00000200010050000400E8030000000000005F
:104F100048020000E0070000B0010000100000009F
:104F2000F53A00080100000001000000C800000080
:104F300004000000080F0020000000005C4F000883
:104F400000000020A80000006C01000804500008C8
:104F5000A8000020E81500008801000800000000FB
:104F60000000000000000000000000000000000041
:104F70000000000000000000000000000000000031
:104F80000000000000000000000000000000000021
:104F90000000000000000000000000000000000011
:104FA00000000000000000000102030401020304ED
:104FB00006070809020406080000000000000000BF
:104FC00000000000000000000000000013140008B2
:104FD0000000000001000000C80000000000000008
:104FE00000000000000000000000000000000000C1
:104FF00000000000000000000000000000000000B1
:0450000000000000AC
:0400000508000323C9
:00000001FF
