:020000040800F2
:100000000004002023030008310300083303000824
:10001000350300083703000839030008000000001A
:10002000000000000000000000000000590200086D
:100030003D03000800000000D10200080D03000885
:100040004303000843030008430300084303000878
:100050004303000843030008A316000843030008F5
:100060004303000843030008430300084303000858
:100070004303000843030008430300084303000848
:100080004303000843030008430300084303000838
:100090004303000843030008430300084303000828
:1000A0004303000843030008430300084303000818
:1000B000BB1500084303000843030008430300087E
:1000C00043030008430300084303000843030008F8
:1000D00043030008430300084303000843030008E8
:1000E00043030008430300084303000843030008D8
:1000F00043030008430300084303000843030008C8
:1001000043030008430300084303000843030008B7
:1001100043030008430300084303000843030008A7
:100120004303000843030008430300084303000897
:1001300000F002F800F03AF80AA090E8000C8244BF
:100140008344AAF10107DA4501D100F02FF8AFF29C
:10015000090EBAE80F0013F0010F18BFFB1A43F0A5
:1001600001031847C4500000E4500000103A24BFB7
:1001700078C878C1FAD8520724BF30C830C144BF0C
:1001800004680C607047000000230024002500264E
:10019000103A28BF78C1FBD8520728BF30C148BFEA
:1001A0000B6070471FB51FBD10B510BD03F01CFCE0
:1001B0001146FFF7F7FF0FB400F00CF80FBC01F089
:1001C0008FFA03F0FFFB03B4FFF7EEFF03BC03F06D
:1001D00005FC000004B003F011FD0448002103F009
:1001E000D5FD03F01DFD03F0EDFB000070000020C5
:1001F00080F309887047EFF309807047684680F301
:10020000098804480078C00714BF0220032080F347
:1002100014887047E8510008DFF818C0EFF3058331
:100220001B0618BF6047EFF31483DB0708BF604766
:1002300000DF7047373E0008DFF818C0EFF3058392
:100240001B0618BF6047EFF31483DB0708BF604746
:1002500000DF7047B5400008EFF30980816911F8AD
:10026000021CF1B990E80F10E047EFF3098C8CE81D
:100270000700144B93E8060091420FD039B12CE9E6
:10028000F00FC1F828C00CB404F0FCFA0CBC1A60E2
:10029000D2F828C0BCE8F00F8CF309886FF0020E8A
:1002A000704710B5084A1268914209D8074C54F8B3
:1002B000214090E80F10A047EFF3098C8CE80F0065
:1002C00010BD000088000020343A0008343A0008CD
:1002D00004F0AAF90C4B93E80600914210D0EFF31A
:1002E000098C2CE9F00FC1F828C00CB404F0CAFA4C
:1002F0000CBC1A60D2F828C0BCE8F00F8CF3098857
:100300006FF0020E704700008800002004F082FBAE
:10031000E0E7000003F08EFD04F07CFBDAE700006C
:1003200070470B4880470B4981F308880A4800470B
:10033000FEE7FEE7FEE7FEE7FEE7FEE7FEE7FEE795
:10034000FEE7FEE705480649044A064B70470000F1
:100350002103000830220020310100083020002055
:1003600030220020302000202DE9FE430646FB48C5
:10037000006803F0BBFC0746F948006803F0B6FCD0
:100380000446F848006803F0B1FC0546F6480068EA
:1003900003F0ACFC8046F548407800F00F000528DB
:1003A0007DD2DFE800F003288AEBFD00EF484078BB
:1003B000287000222946EE48006803F08BFC4FF0BD
:1003C000FF31012003F0D6FC8DE807002946E548FF
:1003D000006803F0B3FC3946E048006803F0AEFC67
:1003E0004146E148006803F0A9FC2146DC4800686A
:1003F00003F0A4FC62E1DD48407828706E700022B2
:100400002946DB48006803F065FC4FF0FF3101200E
:1004100003F0B0FC8DE807002946D248006803F0DD
:100420008DFCD248407838707E7000223946D14821
:10043000006803F04FFC4FF0FF31012003F09AFCFD
:100440008DE807003946C548006803F077FCC748C7
:10045000407888F8000088F8016000224146C648CC
:10046000006803F037FC4FF0FF31012003F082FCFD
:100470008DE807004146BC48006803F05FFCBB48BC
:1004800040782070B94880786070B8480079A070D2
:1004900000222146B948006803F01CFC00E00CE192
:1004A0004FF0FF31012003F065FC8DE80700214685
:1004B000AB48006803F042FC00E1AC48407828708B
:1004C0006E7000222946AA48006803F003FC4FF032
:1004D000FF31012003F04EFC8DE807002946A148BA
:1004E000006803F02BFCA148407838707E70002231
:1004F0003946A048006803F0EDFB4FF0FF310120C2
:1005000003F038FC8DE8070039469448006803F092
:1005100015FC9648407888F80000002088F8010013
:10052000002241469448006803F0D4FB4FF0FF31AD
:10053000012003F01FFC8DE8070041468A4800684F
:1005400003F0FCFB89484078207088488078607010
:1005500086480079A070002221468848006803F090
:10056000B9FB4FF0FF31012003F004FC8DE80700D8
:1005700021467B48006803F0E1FB9FE07B48407820
:1005800028706E70002229467948006803F0A2FBAB
:100590004FF0FF31012003F0EDFB8DE8070000E094
:1005A0004FE029466F48006803F0C8FB6F48407869
:1005B000387000207870002239466E48006803F0D9
:1005C00089FB4FF0FF31012003F0D4FB8DE80700D9
:1005D00039466248006803F0B1FB6448407888F807
:1005E000000088F80160002241466348006803F07B
:1005F00071FB4FF0FF31012003F0BCFB8DE80700D9
:1006000041465948006803F099FB584840782070EB
:1006100056488078607055480079A07000222146C5
:100620005648006803F056FB4FF0FF31012003F0FD
:10063000A1FB8DE8070021464948006803F07EFBD6
:100640003CE04A48407828706E70002229464848AD
:10065000006803F03FFB4FF0FF31012003F08AFBFD
:100660008DE8070029463F48006803F067FB3F48D4
:10067000407820703D48807860703C480079A070D8
:10068000002221463D48006803F024FB4FF0FF3173
:10069000012003F06FFB8DE8070021463048006819
:1006A00003F04CFB41463048006803F047FB3946F5
:1006B0002A48006803F042FB00E000BF00BF294663
:1006C0002848006803F03AFBBDE8FE8310B50446F5
:1006D0000020FFF749FE10BD2448407800F00F00CD
:1006E000052873D2DFE800F0032E042F620087E0B4
:1006F0001E48806860B1A0F59C40203868B1A0F524
:100700009C40203870B1A0F51850AC3898B90EE074
:1007100044F620601549886012E049F640401349CC
:1007200088600DE04CF2EC201049886008E0002061
:100730000E49886004E049F640400C49886000BFDB
:1007400000BF5DE000BF0948C078C8B101281BD0D8
:1007500002281DD0032823D11EE000002C00002019
:100760003C0000202400002034000020A8000020CD
:100770002800002030000020380000204000002029
:100780000120FE49C8700FE00220FC49C8700BE050
:100790000320FA49C87007E00020F849C87003E058
:1007A0000020F649C87000BF00BF29E0F348007977
:1007B00030B101280BD002280FD0032818D112E045
:1007C0000120EE4908711020887016E017E0022021
:1007D000EA490871102088700FE00320E74908718A
:1007E0001020887009E00020E4490871887004E056
:1007F0000020E2490871887000BF00BF00E000BF20
:1008000000BF7047DD48407800F00F00052827D270
:10081000DFE800F0030A11181F00D848807840F084
:100820000100D64948701FE0D448807840F00200AB
:10083000D249487018E0D148807840F00400CF4990
:10084000487011E0CD48807840F00400CB494870F2
:100850000AE0CA48807840F00100C849487003E0C7
:100860000020C649487000BF00BF7047A8B000BF55
:1008700000250CE0C249098841F2707201FB02F0C8
:10088000C11700EB115109134DF825106D1C282DCF
:10089000F0D30024002503E05DF8250004446D1C1E
:1008A000282DF9D32820B4FBF0F4A034B4F57A6FE6
:1008B0001DD300224FF40071B24801F0B4FB0022B6
:1008C0004FF40051B04801F0AEFB00224FF48041DC
:1008D000AD4801F0A8FB00224FF40041AA4801F006
:1008E000A2FB00224FF40061A84801F09CFB40F6F7
:1008F000D860844220D9B4F57A6F1DD200224FF41B
:100900000071A04801F08FFB00224FF400519E4877
:1009100001F089FB00224FF480419B4801F083FBEA
:1009200000224FF40041984801F07DFB00224FF473
:100930000061964801F077FBB4F5616F20D340F673
:10094000D86084421CD200224FF400718D4801F01F
:100950006AFB00224FF400518B4801F064FB002237
:100960004FF48041884801F05EFB00224FF40041C3
:10097000854801F058FB0122D102844801F053FB65
:1009800040F6485084421ED3B4F5616F1BD200225A
:100990004FF400717B4801F046FB00224FF40051F8
:1009A000794801F040FB00224FF48041764801F085
:1009B0003AFB0122D103744801F035FB0122D10238
:1009C000724801F030FBB4F5486F1ED340F6485032
:1009D00084421AD200224FF400716A4801F023FBCE
:1009E00000224FF40051684801F01DFB01229103E1
:1009F000654801F018FB0122D103634801F013FBA5
:100A00000122D102614801F00EFB40F6B830844269
:100A10001CD3B4F5486F19D200224FF40071594825
:100A200001F001FB01225103574801F0FCFA0122B9
:100A30009103554801F0F7FA0122D103524801F021
:100A4000F2FA0122D102514801F0EDFA40F6B83035
:100A5000844218D2012251024A4801F0E4FA0122EC
:100A60005103494801F0DFFA01229103464801F0A1
:100A7000DAFA0122D103444801F0D5FA0122D10269
:100A8000424801F0D0FA41F2883003F0ABF8EFE6CB
:100A90003F48006803F02AF9054600BF4FF0FF31D8
:100AA0003C48006803F00AF93B4B07C33A4800682A
:100AB00010283BD1384844686078102829D1A078A4
:100AC00030B1012808D002280ED003281CD113E031
:100AD000002000F0FDFF1BE0012000F0F9FF42F2D2
:100AE00010702E49088013E0012000F0F1FF48F655
:100AF000B8002A4908800BE0012000F0E9FF4EF61B
:100B0000FC102649088003E0002000F0E1FF00BF50
:100B100002E0002000F0DCFF01212148006803F022
:100B20001DF929461A48006803F008F940F2EE2042
:100B300003F058F8B2E71B48006803F0D7F8804686
:100B400000BF00211848006803F0B8F8174B07C32E
:100B500016480068102810D114484568287800F01D
:100B60000F066F78002401210D48006803F0F6F8A5
:100B700041460C48006803F0E1F819E0A8000020A5
:100B800046000020000C0140001001400008014018
:100B90003C0000204000002080020020382C014052
:100BA000040000203400002038000020280200202B
:100BB000012E04D0022E27D0032E2BD100E000BF3F
:100BC0008021F94801F011FA28B900220221F748E2
:100BD00001F029FA17E0012F10D1B4F5967F07D163
:100BE00001220221F14801F01EFA40F22D140AE020
:100BF00040F22D10844206D0641C04E00022022141
:100C0000EA4801F010FA06E000220221E74801F06C
:100C10000AFA00E000BF00BF4FF4FA7002F0E2FFF2
:100C20008FE700BFE248006803F060F8804600BF2D
:100C30000021E048006803F041F8DF4B07C3DE48BD
:100C40000068102810D1DC484568287800F00F06AD
:100C50006F7800240121D948006803F07FF84146ED
:100C6000D348006803F06AF8012E02D0022E5DD14D
:100C700000E000BF012F2AD144B9012000F0FEFEA0
:100C80000124CF488089CF4908804EE0CC48C06815
:100C9000CB498968884206D9C948C068A0F5FA706E
:100CA000C749C8600BE0C648C068C5498968884222
:100CB00005D2C348C06800F5FA70C149C860012078
:100CC00000F0DCFEBE488089BE4908802DE074B982
:100CD000012000F0D3FEBA488089BA490880012477
:100CE000B748C06800F5FA70B549C8601DE0012C2E
:100CF0001BD1B3488089B3490880B148C068B0F5BA
:100D00007A4F06D9AE48C068A0F5FA70AC49C86001
:100D100005E0AB48C06800F5FA70A949C860A8486A
:100D2000C068B0F57A4F00D3022400BF00BF00BFF7
:100D30004FF4FA7002F056FF7AE7A348006802F019
:100D4000D5FF074600BF4FF0FF31A048006802F012
:100D5000B5FF9F4B07C39E48006810281ED19C48D2
:100D6000456800BF00BF287800F00F046E780121AD
:100D70009248006802F0F2FF39469348006802F09A
:100D8000DDFF00214FF0804001F0FBFE002101203B
:100D900001F041FB40F6C41002F024FF052C7DD287
:100DA000DFE804F0031E501F6B004FF4FA70844913
:100DB00048619620886142F21070C8614010086254
:100DC0000020486288624FF4FA7000F0E8FF0121C9
:100DD000084601F020FB0121880701F0D2FE6AE0FD
:100DE00000BF012E14D14FF4FA7075494861962066
:100DF00088614FF6E850C86149F6404008627820A3
:100E000048623C2088624FF4FA7000F0C8FF10E09E
:100E10004FF4FA706A494861886142F21070C86103
:100E2000401008620020486288624FF4FA7000F0B7
:100E3000B6FF0121084601F0EEFA0121880701F012
:100E4000A0FE38E04FF4FA705D4948619620886151
:100E500042F21070C8614010086200204862886247
:100E60004FF4FA7000F09BFF0121084601F0D3FA1D
:100E70000121880701F085FE1DE04FF4FA7050490A
:100E800048619620886142F21070C8614010086283
:100E90000020486288624FF4FA7000E00AE000F037
:100EA0007EFF0121084601F0B6FA0121880701F012
:100EB00068FE00E000BF00BF0A2002F093FE42E798
:100EC0001FB54448006802F011FF00900126002081
:100ED0000290019003900027804600BF0A213E48FF
:100EE000006802F0EBFE3D4B07C33C480068102849
:100EF00078D13A48D0F804B09BF800700121384806
:100F0000006802F02BFF4FF0000A27B1012F0CD030
:100F1000022F0DD106E00120FFF726FA012600205E
:100F2000029006E0FFF76EFC03E0FFF7D5FB00E060
:100F300000BF00BF2248407800F00F00052818D2FB
:100F4000DFE800F003070B0F1300002600200290DB
:100F500013E00126012002900FE0022602200290F9
:100F60000BE004260420029007E0072607200290E9
:100F700003E000260020029000BF00BF1048407828
:100F800000F00F00042803D10D480079039002E01F
:100F90000B48C0780390039828B3012827D0022873
:100FA00029D003282FD12AE000080140000C01407D
:100FB0002C00002030000020D00100200400002080
:100FC000A8000020342C014024000020280000202C
:100FD000780100201C0000202000002020010020BB
:100FE000000000201BE00026002001900FE00126F9
:100FF000012001900BE002260220019007E0032669
:101000000320019003E000260020019000BF00BFF4
:101010000024A046F7480099006802F08FFE27B12F
:10102000012F78D0022F77D10EE032460621002022
:1010300000F076FC601CC4B2062C02DA7006060EC4
:1010400001E000240126DEE1EB48407800F00F00CB
:1010500005282ED2DFE800F003060F1B24004FF016
:10106000000929E0E448C07810B94FF0000901E018
:101070004FF0010920E0E04880684CF2EC21884202
:1010800002D14FF0000901E04FF0010914E0DA4805
:10109000C07810B94FF0000901E04FF001090BE0F2
:1010A000D548807810B94FF0000901E04FF00109F0
:1010B00002E04FF0000900BF00BFB9F1000F6ED091
:1010C00006210320019A00F02BFC3C2C0DDA14B908
:1010D0000120FFF749F932460321002000F020FCEF
:1010E000F043C6B2601CC4B297E0B8F1000F63D100
:1010F00003210020029A00F013FC4FF001080122A6
:101100000421BE4800F08FFFBB48407800F00F007C
:10111000052832D201E081E074E1DFE800F0030D40
:1011200017222D000020B4494871087400221021B4
:10113000B34800F078FF21E00120AF4948710874FE
:1011400001221021AE4800F06EFF17E00120AA49ED
:1011500048710020087401221021A94800F063FFA3
:101160000CE00020A44948710120087400221021DD
:10117000A34800F058FF01E000E000BF00BF9E4818
:10118000407800F00F00042847D09B48C07838B161
:10119000012807D0022808D003280BD108E030E04E
:1011A000002508E044F2506505E048F6A04502E05D
:1011B000002500E000BF30E08F48407800F00F00CD
:1011C00004282AD08C48C07830B1012806D00228E3
:1011D00005D0032813D110E0002511E000BF012D38
:1011E00000D96D1E012D07D100250020FFF7BCF8A6
:1011F000002081494871087402E0002500E000BF2A
:101200000BE0BAF1000F08D10020FFF7ADF8002085
:101210007949487108744FF0010AF4E07648407843
:1012200000F00F0005282ED2DFE800F003060F1BA8
:1012300024004FF0000929E06F48C07810B94FF042
:10124000000901E04FF0010920E06B4880684CF292
:10125000EC21884202D14FF0000901E04FF0010972
:1012600014E06548C07810B94FF0000901E04FF074
:1012700001090BE06048807810B94FF0000901E0E7
:101280004FF0010902E04FF0000900BF00BFB9F1C3
:10129000010F70D103210020029A00F041FB3C2C89
:1012A0000DDA14B90120FFF75FF83246062103205A
:1012B00000F036FBF043C6B2601CC4B299E0B8F14E
:1012C000000F60D106210320019A00F029FB4FF0A6
:1012D000010801220421494800F0A5FE4648407853
:1012E00000F00F0005282FD2DFE800F0030D1722D1
:1012F0002D00002040494871087400221021404808
:1013000000F091FE21E001203B4948710874012260
:1013100010213B4800F087FE17E001203649487154
:101320000020087401221021354800F07CFE0CE0FA
:1013300000203149487101200874002210213048F2
:1013400000F071FE01E000E000BF00BF2A484078D5
:1013500000F00F0004284CD02748C07830B1012895
:1013600006D0022808D003280BD108E0002509E0A8
:1013700044F2506506E030E048F6A04502E0002562
:1013800000E000BF35E01C48407800F00F00042862
:101390002FD01948407800F00F0050B31648C0789D
:1013A00030B1012806D0022805D0032813D110E05F
:1013B000002511E000BF012D00D96D1E012D07D1C0
:1013C00000250020FEF7D0FF00200B49487108746B
:1013D00002E0002500E000BF0BE0BAF1000F08D1E9
:1013E0004FF0010A0020FEF7BFFF002002494871BC
:1013F000087408E01C000020A8000020000C014038
:101400000008014000BF00BFFA2002F0EBFB65E5D9
:101410000EB5FE48006802F069FC064600BF0024D5
:10142000002501270121FA4800F0DFFD00287DD1C9
:101430004FF4FA7002F0D6FB0DE00121F44800F001
:10144000D4FD20B90A2002F0CDFB641C00E000248A
:101450000A2C00D900E0F0E700BF00240121EC488D
:1014600000F0C3FDE8B91AE00121E94800F0BDFD34
:10147000A0B9641C322002F0B5FBB4F5967F0ED9FA
:10148000E448007848B901220421E14800F0CBFD8E
:1014900001220221DE4800F0C6FD01E000E0E3E7A2
:1014A00000BFB4F5967F42D9DA48007800BB01222C
:1014B0000221D74800F0B7FD01220421D44800F0F2
:1014C000B2FD00220421D44800F0ADFD002210211D
:1014D000CF4800F0A8FD0120CE49087000204870D8
:1014E000307000223146CD48006802F0F3FB4DE039
:1014F00000220421C84800F096FD00221021C448B3
:1015000000F091FD0A2002F06DFB0020C149087037
:1015100000220221BE4800F086FD0A2002F062FB94
:1015200000220421BA4800F07EFD2FE041E00025B2
:101530000DE00121B64800F058FD012806D16D1CD0
:10154000052002F04FFB1E2D01D901E00025F0E738
:1015500000BF0025012710E00121AD4800F045FD46
:10156000012807D16D1C0A2002F03CFBB5F5FA7F7B
:1015700003D903E00025022700E0EDE700BF377044
:1015800000223146A548006802F0A4FB4FF0FF316D
:10159000012002F0EFFB8DE8070000BF01219C480D
:1015A00000F023FD0028F9D031469848006802F089
:1015B000C5FB322002F016FB31E710B50121880788
:1015C00001F0BDFD00286BD00121880701F0C8FDA6
:1015D00000214FF0804001F0D4FA0021012000F0FA
:1015E0001AFF8C48806908B38D48027801218A4827
:1015F00000F019FD8A48007818B9FF208849087062
:1016000002E000208649087082488069401E8149B6
:1016100088614FF4FA7000F0C2FB0121084600F027
:10162000FAFE0121880701F0ACFA39E07948406AF6
:1016300090B19620774988610846406A401E48620A
:10164000C86900F0ACFB0121084600F0E4FE01216E
:10165000880701F096FA23E06E48806A90B19620E0
:101660006C4988610846806A401E8862086A00F0FA
:1016700096FB0121084600F0CEFE0121880701F00B
:1016800080FA0DE000214FF0804001F07AFA00214D
:10169000012000F0C0FE002201215F4800F0C3FCE1
:1016A00010BD70B501205F4908604FF4FA7002F078
:1016B00099FA12E00121564800F097FC28B90A2057
:1016C00002F090FA6D1C002401E00025641C0A2D34
:1016D00000D903E00A2C00D900E0EBE700BF70BDA1
:1016E00010B502F0EBF800F0E9F800F04EF900F068
:1016F000A2FA00F030FB0020464908700120C870B3
:101700000320087100208870487188604DF2D8600D
:10171000C860002008744FF4FA7048619620886110
:1017200042F21070C861401008620020486288626E
:1017300000213D4802F0AAFA384908603B4802F00F
:10174000E5FA324908600021394802F09FFA394928
:101750000860394802F0DAFA384908600021384850
:1017600002F094FA37490860374802F0CFFA374957
:1017700008600021364802F089FA36490860364888
:1017800002F0C4FA354908600021354802F07EFABB
:1017900034490860344802F0B9FA3449086000213D
:1017A000334802F0F3FA334908600021324802F06E
:1017B000EDFA324908600021314802F0E7FA314978
:1017C00008600021304802F0E1FA30490860002149
:1017D0002F4802F0DBFA2F49086000212E4802F062
:1017E000D5FA2E49086000212D4802F0CFFA2D4984
:1017F000086000F0BFFA4FF4FA6000F0D0FA002160
:101800004FF0804001F0BDF900214DE01C000020A8
:1018100000080140A8000020000C0140200000202A
:101820004400002014040140905000088450000837
:10183000A450000828000020985000082400002030
:10184000B850000830000020AC5000082C000020E8
:10185000CC50000838000020C050000834000020A0
:10186000E050000840000020D45000083C00002058
:1018700048510008000000203851000804000020F2
:101880002851000808000020185100080C00002012
:101890000851000810000020F85000081400002033
:1018A000E850000818000020012000F0B4FD4FF0BF
:1018B000FF3002F097F9002010BD000038B5002479
:1018C0000121102000F09AFD0121042000F096FD76
:1018D0000121082000F092FD00BF1EE0254800EB2A
:1018E000C400808880B2ADF8000010208DF803009D
:1018F00003208DF802001F4951F83400694600F0BA
:10190000E1FA1C4A02EBC402928891B2194A52F8D9
:10191000340000F086FB601CC4B20F2CDEDB38BD47
:101920002DE9F04106460F4615460024F4B21CE0AE
:1019300005F0010058B10F4A02EBC402928891B23F
:101940000C4A52F83400002200F06DFB0AE0094A0C
:1019500002EBC402928891B2064A52F83400012286
:1019600000F061FB6D10601CC4B2BC42E0D3BDE866
:10197000F08100005851000801B502E00098401EB7
:10198000009000980028F9D108BD08B50121042075
:1019900000F034FD0121082000F030FD012110206D
:1019A00000F02CFD0120ADF800008DF80200482069
:1019B0008DF803006946154800F084FA0220ADF85E
:1019C000000001208DF8020010208DF80300694608
:1019D0000E4800F077FA0420ADF8000001208DF8E1
:1019E000020010208DF803006946084800F06AFAEA
:1019F0008020ADF8000001208DF8020048208DF80D
:101A000003006946014800F05DFA08BD0008014086
:101A100008B50121C80200F0F1FC01210C2000F002
:101A2000EDFC4FF46040ADF8000018208DF8030085
:101A300003208DF802006946854800F043FA08BD8E
:101A40000EB54EF66020ADF804000920ADF8000098
:101A50000020ADF80600ADF8020069467D4800F0B0
:101A60000AFE01217B4801F08DF90121794801F03E
:101A700088F80121774801F090F80EBD1FB50446A3
:101A80007020ADF800000020ADF80200012C03D159
:101A90000420ADF8040002E00020ADF804004EF68A
:101AA0006020ADF806000220ADF808000820ADF86F
:101AB0000A004001ADF80C000020ADF80E006946A8
:101AC000644800F0F1FD0821624801F08BF91FBD68
:101AD0001FB504467020ADF800000020ADF80200EC
:101AE000012C03D10420ADF8040002E00020ADF881
:101AF00004004EF66020ADF806000220ADF80800A4
:101B00000820ADF80A004001ADF80C000020ADF847
:101B10000E0069464F4800F0FEFD08214D4801F0D7
:101B20006AF91FBD1FB504467020ADF80000002003
:101B3000ADF80200012C03D10420ADF8040002E04E
:101B40000020ADF804004EF66020ADF8060002203B
:101B5000ADF808000820ADF80A004001ADF80C000F
:101B60000020ADF80E0069463A4800F01EFE08213C
:101B7000384801F04DF91FBD08B50121022000F0E1
:101B80004AFC0121084600F039FC0121082000F040
:101B900035FC0120ADF8000018208DF8030003206B
:101BA0008DF8020069462A4800F08CF908BD0EB590
:101BB00041F27070ADF804000920ADF8000000207B
:101BC000ADF80600ADF802006946234800F053FD69
:101BD0000121214801F0D6F801211F4800F0D1FF72
:101BE00001211D4800F0D9FF0EBD1FB5044660203D
:101BF000ADF80000012C03D10120ADF8020002E095
:101C00000020ADF802004FF47A70ADF80600002015
:101C1000ADF808006946104800F046FD08210E485E
:101C200001F0E0F801210C4801F0ACF801210A486C
:101C300000F0A7FF1FBD10B5FFF7EAFEFFF700FF9A
:101C400010BD10B5FFF798FFFFF7B1FF10BD000002
:101C5000000C0140002C01400004004008B50121A7
:101C6000042000F0CBFB0820ADF8000000208DF828
:101C7000030069463B4800F025F908BD00B591B066
:101C80000121084600F0ADFB374801F085FC3748DC
:101C90000690374807900020089001200990002006
:101CA0000A900B904FF480700C9080000D902020D3
:101CB0000E9000020F900020109006A92A4801F013
:101CC00004FD0121284801F02BFD0121480200F00C
:101CD00095FB0020019001208DF808008DF8090087
:101CE0004FF4602003900020049001208DF8140030
:101CF00001A91E484C3801F064FA07230122032190
:101D00001A484C3801F0F5FA012118484C3801F016
:101D10008FFA012115484C3801F07FFA13484C38EE
:101D200001F09DFA00BF11484C3801F09DFA0028DF
:101D3000F9D10E484C3801F0A1FA00BF0B484C38DD
:101D400001F0A1FA0028F9D1012108484C3801F02E
:101D5000A4FA11B000BD10B5FFF780FFFFF78EFFAA
:101D600010BD000000080140080002404C24014062
:101D70004600002008B54FF4E06000F0A3FB1C20F3
:101D80008DF8000000208DF8010003208DF802007E
:101D900001208DF80300684600F099FB08BD3EB5B0
:101DA00004460121084600F036FB4FF0804000F069
:101DB000F7FBA0B2ADF804004720ADF8000000200A
:101DC000ADF8020069464FF0804000F054FC01215C
:101DD000880701F0B1F901221146900700F0ECFEEE
:101DE0000121880700F0CDFE0121084600F013FB19
:101DF0003EBD000010B50446C649601A8C422FD083
:101E000009DCC548204480B1B0F5806F16D0B0F52C
:101E1000006F4AD11BE0B0F5806F2AD0B0F5006F9B
:101E200030D0B0F5406F40D135E00121042000F002
:101E3000FFFA0021042000F0FBFA37E0012108201E
:101E400000F0F6FA0021082000F0F2FA2EE001215D
:101E5000102000F0EDFA0021102000F0E9FA25E052
:101E60000121202000F0E4FA0021202000F0E0FA17
:101E70001CE00121402000F0DBFA0021402000F0AE
:101E8000D7FA13E00121802000F0D2FA002180204F
:101E900000F0CEFA0AE00121080200F0C9FA0021A0
:101EA0004FF4807000F0C4FA00E000BF00BF10BD26
:101EB00010B50121084600F0BBFA0021012000F016
:101EC000B7FA10BD2DE9F04102460025002600209A
:101ED00000230024002791F803C00CF00F0591F8AF
:101EE00003C00CF0100CBCF1000F03D091F802C03D
:101EF0004CEA050591F800C0BCF1000F31D0146820
:101F000000202BE04FF0010C0CFA00F3B1F800C0F8
:101F10000CEA03069E4220D183004FF00F0C0CFA0E
:101F200003F7BC4305FA03FC4CEA040491F803C030
:101F3000BCF1280F06D14FF0010C0CFA00FCC2F8DE
:101F400014C00AE091F803C0BCF1480F05D14FF06E
:101F5000010C0CFA00FCC2F810C0401C0828D1D3B8
:101F60001460B1F800C0BCF1FF0F34DD54680020EC
:101F70002EE000F1080C4FF0010808FA0CF3B1F85C
:101F800000C00CEA03069E4221D183004FF00F0CE3
:101F90000CFA03F7BC4305FA03FC4CEA040491F87D
:101FA00003C0BCF1280F05D100F1080C08FA0CF8A9
:101FB000C2F8148091F803C0BCF1480F07D100F1BA
:101FC000080C4FF0010808FA0CF8C2F81080401C09
:101FD0000828CED35460BDE8F0814FF6FF71018030
:101FE000022181700421C17070470246002093686D
:101FF0000B400BB1012000E00020704701468868CB
:1020000080B2704702460020D3680B400BB101201C
:1020100000E0002070470146C86880B27047016147
:102020007047416170470AB1016100E0416170474A
:10203000C16070474FF480320A43826181618261DE
:1020400082698269704702460020344B18684FF657
:102050008073184040EA02100843304B1860704704
:102060002F49C8617047F0B50A46002300240021BB
:1020700000252A4E7168C0F3034583B200F4401670
:10208000B6F5401F08D121F07061244E766826F025
:102090007066224F7E6012E000F48016B6F5801F55
:1020A00006D1032606FA05F4A14341F0706106E06B
:1020B000460D360103FA06F6B14341F0706122B1D4
:1020C000460D360103FA06F63143144E7160F0BD39
:1020D00030B500228B071C0F0F2303FA04F20F4BBD
:1020E00008338C1053F8243093430C4C08348D1073
:1020F00044F8253023468C1053F824308C07240FE5
:1021000000FA04F42343054C08348D1044F82530BC
:1021100030BD00000014014000F8FEBF0000014087
:1021200000002042DE48006840F00100DC49086001
:1021300008464068DB490840D949486008460068BD
:10214000D9490840D64908600846006820F4802034
:1021500008600846406820F4FE004860002088605F
:102160007047CF49096821F48031CD4A116011468A
:10217000096821F480211160B0F5803F03D0B0F5EB
:10218000802F0ED106E0C649096841F48031C44A67
:10219000116007E0C249096841F4A021C04A1160FA
:1021A00000E000BF00BF704710B5014600220023C9
:1021B00000204A11012A02D1B94C236806E0022A04
:1021C00002D1B74C236A01E0B54C636A01F01F02EB
:1021D000012494401C400CB1012000E0002010BDFF
:1021E00038B5002000900024002500BF3120FFF703
:1021F000DBFF05460098401C00901DB90098B0F523
:10220000A06FF3D13120FFF7CFFF08B1012400E028
:102210000024204638BD01460020A14A106820F065
:10222000F80040EAC10010607047A049086070479C
:10223000024600209A4B586820F47C1042EA0103C1
:102240001843974B58607047984908667047014695
:102250000020934A506820F0030008435060704704
:102260008F48406800F00C007047014600208C4AFF
:10227000506820F0F000084350607047014600208D
:10228000874A506820F4E060084350607047014678
:102290000020834A506820F4605040EAC10050603A
:1022A000704729B17E4A527A02437D4B5A7204E04C
:1022B0007B4A527A82437A4B5A7270477B49D831B3
:1022C0000860704701460020754A506820F440407D
:1022D0000843506070470021714A20321170704AE3
:1022E00082F82010012802D004280AD104E001213C
:1022F0006B4A2032117005E00521694A20321170C5
:1023000000E000BF00BF704769490860704764493A
:10231000096A0143624A116270476549443908609D
:10232000704730B500210022002400235C4D6D6809
:1023300005F00C0121B1042905D0082923D105E0BD
:102340005C4D056022E05B4D05601FE0544D6D68FB
:1023500005F47012022505EB9242514D6D6805F4AB
:1023600080341CB9544D554305600BE04C4D6D68ED
:1023700005F400351DB1504D5543056002E04D4D4B
:102380005543056002E04B4D056000BF00BF444D62
:102390006D6805F0F0010909484D6B5C0568DD408A
:1023A00045603F4D6D6805F4E061090A434D6B5C83
:1023B0004568DD4085603A4D6D6805F46051C90A95
:1023C0003E4D6B5C4568DD40C560354D6D6805F47C
:1023D0004041890B3A4D6B5CC568B5FBF3F505616F
:1023E00030BD29B12E4A526902432D4B5A6104E097
:1023F0002B4A526982432A4B5A61704729B1284AB5
:1024000092690243264B9A6104E0254A926982430D
:10241000234B9A61704729B1214AD2690243204B6C
:10242000DA6104E01E4AD26982431D4BDA617047CB
:1024300029B11B4AD2680243194BDA6004E0184AFA
:10244000D2688243164BDA60704729B1144A126988
:102450000243134B1A6104E0114A12698243104B84
:102460001A61704712494039086070470F49C864C3
:1024700070470B49C87170470948406A40F0807046
:1024800007494862704701460020054A92680A40A1
:102490000AB1012000E000207047014988727047AE
:1024A000001002400000FFF8FFFFF6FE000042426D
:1024B0008004424200127A0000093D0048000020DA
:1024C0005800002031490143314A1160704770B50E
:1024D000002100230F22C47804B32D4C246804F497
:1024E000E064C4F5E064210AC1F10403CA40447801
:1024F00004FA03F18478144021430901254C06783D
:10250000A155047804F01F050124AC4005786D1135
:10251000AD0005F1E025C5F8004109E0047804F0BC
:102520001F050124AC401C4D0678761145F8264065
:1025300070BD1A4A0A400243154B1B1F1A607047B0
:1025400039B1134A121D12680243114B1B1D1A6048
:1025500006E00F4A121D126882430D4B1B1D1A60C4
:102560007047042808D14FF0E021096941F00401C7
:102570004FF0E022116107E04FF0E021096921F0FE
:1025800004014FF0E0221161704700000000FA05DD
:102590000CED00E000E400E080E100E080FFFF1FC0
:1025A00010B50446F749601A8C4245D00CDCB4F1F2
:1025B000804F1DD0F448204418B3B0F5806F29D067
:1025C000B0F5006F54D12EE0B0F5806F3DD0B0F57E
:1025D0008E3F03D0B0F5923F4AD13FE00121C802BF
:1025E000FFF726FF00214FF40060FFF721FF40E0D6
:1025F00001210846FFF729FF00210120FFF725FFF1
:1026000037E001210220FFF720FF00210220FFF721
:102610001CFF2EE001210420FFF717FF00210420FA
:10262000FFF713FF25E001210820FFF70EFF00212F
:102630000820FFF70AFF1CE001211020FFF705FF2B
:1026400000211020FFF701FF13E001212020FFF7F8
:10265000FCFE00212020FFF7F8FE0AE001214803DC
:10266000FFF7E6FE00214FF40050FFF7E1FE00E027
:1026700000BF00BF10BD028802F08F020280CA882E
:102680004B881A4303881A4302808A8882850A8805
:102690000285BE4A904202D0BD4A904201D10A7AD8
:1026A000028601228282704770B500240022002336
:1026B000058C4FF6FE7635400584028C8388048BAA
:1026C0004FF68F752C400D882C43751E2A400D89BE
:1026D0002A434D882A43CD888586AC4DA84202D036
:1026E000AB4DA84213D14FF6F7752A404D892A43C6
:1026F0004FF6FB752A408D882A4347F6FF652B402D
:1027000047F6FF552B408D892B43CD892B43838082
:102710000483028470BD70B5002400220023058C60
:102720004FF6EF7635400584028C8388048B48F69B
:10273000FF752C400D884FF6FF7606EA05252C43E1
:102740004FF6DF752A400D8906EA05152A434D88A4
:1027500006EA05152A43CD8805878C4DA84202D08C
:102760008B4DA8421DD14FF67F752A404D894FF6FB
:10277000FF7606EA05152A434FF6BF752A408D8875
:1027800006EA05152A4347F6FF352B4047F2FF7549
:102790002B408D8906EA85052B43CD8906EA850500
:1027A0002B4383800483028470BD70B50024002213
:1027B0000023058C4FF6FF6635400584028C838824
:1027C000848B4FF68F752C400D882C434FF6FF55A8
:1027D0002A400D894FF6FF7606EA05252A434D88E3
:1027E00006EA05252A43CD888587684DA84202D090
:1027F000674DA8421DD14FF2FF752A404D894FF613
:10280000FF7606EA05252A434FF6FF352A408D88D4
:1028100006EA05252A4346F6FF752B4045F6FF7567
:102820002B408D8906EA05152B43CD8906EA05154F
:102830002B4383808483028470BD70B50024002202
:102840000023058C4EF6FF7635400584028C838884
:10285000848B48F6FF752C400D884FF6FF7606EA0C
:1028600005252C434DF6FF752A400D8906EA0535EE
:102870002A434D8806EA05352A43CD88A0F8405002
:10288000424DA84202D0424DA84207D1C3F30D03E6
:102890008D894FF6FF7606EA85152B438380848366
:1028A000028470BD828B4FF2FF331A408283828B89
:1028B0004FF6FF7303EA01231A4382837047F0B592
:1028C0000C461546002100220026078C4EF6FF7CA0
:1028D00007EA0C070784818B028C4FF6FF7707EA23
:1028E000043640F6FF4739404FF6FF7707EA0527E1
:1028F0004FF6FF7C0CEA033C47EA0C0739434DF6E0
:10290000FF773A4046F480573A4381830284F0BD12
:10291000828B4FF6F3731A408283828B0A43828341
:102920007047F0B50C461546002100220026078CA2
:102930004FF6FF6C07EA0C070784818B028C4FF679
:10294000FF7707EA04264FF60C7739404FF6FF77FA
:1029500007EA03172F4339434FF6FF573A4046F42F
:1029600080773A4381830284F0BD028B4FF2FF33BC
:102970001A400283028B4FF6FF7303EA01231A43C6
:10298000028370470010004000FCFFBF002C014094
:1029900000340140F0B50C46154600210022002607
:1029A000078C4FF6EF7C07EA0C070784018B028C3B
:1029B0004FF6FF7707EA041640F6FF4739404FF617
:1029C000FF7707EA033739434FF6FF7707EA052712
:1029D00039434FF6DF773A4046F010073A43018318
:1029E0000284F0BD028B4FF6F3731A400283028B10
:1029F0000A4302837047F0B50C46154600210022B9
:102A0000068C4FF6FE773E400684018B028C4FF613
:102A10000C7631407E1C06EA03162E4331437E1E9F
:102A2000324044F00106324301830284F0BD70B5A8
:102A300005460C46208850B92389A288618828461B
:102A4000FFF7D9FFE1882846FFF7CCFF25E0208873
:102A500004280AD12389A28861882846FFF79AFFB3
:102A6000E1882846FFF781FF17E0208808280AD16F
:102A70002389A28861882846FFF753FFE18828460A
:102A8000FFF746FF09E02389A28861882846FFF7FF
:102A900016FFE1882846FFF705FF70BD2DE9F041DC
:102AA00005460C4600260127608808B9022600E08A
:102AB0000026A088012801D1022700E001272088F4
:102AC000A0B92389A28861882846FFF794FFE1888E
:102AD0002846FFF787FF23893A4631462846FFF705
:102AE00059FFE1882846FFF740FF13E02389A288B9
:102AF00061882846FFF74EFFE1882846FFF735FF3B
:102B000023893A4631462846FFF775FFE188284673
:102B1000FFF768FFBDE8F0810A884B881A438B886D
:102B20001A43CB881A430B891A434B891A438B8962
:102B30001A43A0F8442070474FF6FF7181800021AE
:102B40000180C18041800172704700210180418075
:102B50008180C180018141818181C18170470021D3
:102B600001804180012181800021C1800181704765
:102B70000021018041808180C1800181418181816A
:102B8000704721B1028842F00102028004E002880D
:102B900040F2FE331A400280704731B1B0F8442051
:102BA00042F40042A0F8442005E0B0F84420C2F30B
:102BB0000E02A0F8442070471AB183890B43838129
:102BC00002E083898B43838170478182704741EAA9
:102BD0000203A0F8483070471AB183890B43838100
:102BE00002E083898B438381704701894FF6F87235
:102BF0001140018170470A46002101894FF68F7309
:102C0000194011430181704730B504460D462946ED
:102C10002046FFF7F0FF208940F00700208130BDFB
:102C20002DE9F04104460D4616461F46602D06D19B
:102C30003B46012231462046FFF7ACFE05E03B460D
:102C4000012231462046FFF7D6FE29462046FFF7EF
:102C5000D2FF208940F007002081BDE8F08170B5E7
:102C60000C4600210189C9B244EA02054FF6FF76FD
:102C700006EA032635432943018170BD2DE9F04161
:102C800005460E4617469846002443463A463146C6
:102C90002846FFF7E4FF2C894FF6F870044044F013
:102CA00007044FF68F70044044F070042C81BDE897
:102CB000F081F0B504460D4616461F463B463246A7
:102CC00029462046FFF7CBFF208940F48040208131
:102CD000F0BD0185828270470A460021018840F2DA
:102CE0008F331940114301807047F0B50C461546EB
:102CF0001E460021002200230189028B038C4FF61F
:102D0000F877394021434FF6FC473A4040F201172B
:102D10003A434FF6DD773B404FF6FF7707EA061759
:102D20002F433B43018102830384F0BD0A46002107
:102D3000018B4FF68F7319401143018370470A4688
:102D40000021018B48F6FF7319404FF6FF7303EA29
:102D500002231943018370470A460021818B4FF6F5
:102D60008F7319401143818370470A460021818B7C
:102D700048F6FF7319404FF6FF7303EA0223194325
:102D80008183704721B1028842F08002028004E012
:102D9000028840F27F331A400280704721B1828856
:102DA00042F00402828004E082884FF6FB731A40EE
:102DB0008280704721B1828842F00802828004E05C
:102DC00082884FF6F7731A408280704721B182885B
:102DD00042F00102828004E082884FF6FE731A40BE
:102DE000828070470A460021018B4FF6F773194025
:102DF0001143018370470A460021018B4FF2FF7394
:102E000019404FF6FF7303EA022319430183704709
:102E10000A460021818B4FF6F773194011438183D5
:102E200070470A460021818B4FF2FF7319404FF61D
:102E3000FF7303EA02231943818370470A46002186
:102E4000018B4FF6FB7319401143018370470A460B
:102E50000021018B4FF6FF3319404FF6FF7303EA51
:102E600002231943018370470A460021818B4FF6E4
:102E7000FB7319401143818370470A460021818BFF
:102E80004FF6FF3319404FF6FF7303EA022319434D
:102E9000818370470A460021018B4FF67F731940EA
:102EA0001143018370470A460021018BC1F30E01D3
:102EB0004FF6FF7303EA02231943018370470A4662
:102EC0000021818B4FF67F73194011438183704736
:102ED0000A460021818BC1F30E014FF6FF7303EA0E
:102EE00002231943818370470A460021018C4FF663
:102EF000FD7319401143018470470A460021018C7B
:102F00004FF6F77319401143018470470A460021B8
:102F1000018C4FF6DF7319404FF6FF7303EA02137B
:102F20001943018470470A460021018C4FF67F73D4
:102F300019404FF6FF7303EA0213194301847047E7
:102F40000A460021018C4FF6FF5319404FF6FF73DC
:102F500003EA02231943018470470A460021018CC9
:102F60004FF2FF7319404FF6FF7303EA0223194330
:102F7000018470470A460021018C4DF6FF73194009
:102F80004FF6FF7303EA023319430184704710B50B
:102F9000038C01248C40A3430384038C02FA01F4C4
:102FA000A4B22343038410BD10B5038C04248C40C9
:102FB000A3430384038C02FA01F4A4B223430384E1
:102FC00010BD30B5038C01248C40A343038409B1A8
:102FD000082918D100F1180303EB61031B684FF6B1
:102FE0008F74234000F1180404EB6104236000F1A6
:102FF000180303EB61031B68134300F1180404EB8F
:10300000610423601FE00B1FC3F34E0400F118039B
:103010001B5948F6FF7423400C1FC4F34E0500F102
:10302000180463510B1FC3F34E0400F118031B591E
:103030004FF6FF7404EA022423430C1FC4F34E0529
:1030400000F11804635130BD21B1028842F0020240
:10305000028004E0028840F2FD331A40028070478B
:1030600021B1028842F00402028004E0028840F2AA
:10307000FB331A400280704721B1828842F08002FF
:10308000828004E082884FF67F731A408280704706
:10309000028840F2F7331A40028002880A43028015
:1030A000704782884FF68F731A40828082880A4365
:1030B0008280704702894FF6F8731A4002810289B4
:1030C0000A430281704702894FF67F731A400281DA
:1030D00002890A4302817047818470478185704765
:1030E000818670470187704781877047A0F840103C
:1030F00070470288D2B2028002880A430280704779
:103100000146888E70470146088F70470146888FB8
:1031100070470146B1F8400070470146888C7047FF
:103120000146088D704702460020138A0B400BB100
:10313000012000E000207047CA430282704730B58A
:103140000246002000230024158A05EA0103958920
:1031500005EA010413B10CB1012000E0002030BDEC
:10316000CA4302827047000010B50446F748204465
:1031700030B1B0F5806F0DD0B0F5C05F1ED113E057
:1031800001214802FFF754F900214FF40070FFF7C6
:103190004FF914E001218802FFF74AF900214FF4AA
:1031A0008060FFF745F90AE00121C803FFF740F905
:1031B00000214FF40040FFF73BF900E000BF00BFE3
:1031C00010BD30B50246002000235068E04C20407E
:1031D0000D790C6844EA0524204350609068DD4C6A
:1031E0002040D1E902542C434D7944EA4504204360
:1031F0009060D06A20F470000C7C641E1C43E3B223
:1032000040EA0350D06230BD00210160017141717C
:103210008160C16001210174704721B1826842F070
:103220000102826003E0826822F00102826070473E
:1032300021B1826842F48072826003E0826822F4E5
:1032400080728260704710B50023CBB21AB1446817
:103250001C43446002E044689C43446010BD8168A4
:1032600041F0080181607047014600208A6802F041
:1032700008020AB1012000E000207047816841F097
:10328000040181607047014600208A6802F0040250
:103290000AB1012000E00020704721B1826842F4A9
:1032A000A002826003E0826822F4A002826070477C
:1032B000014600208A6802F480020AB1012000E081
:1032C0000020704710B50A4600210023416821F410
:1032D0006041531E41EA4331416010BD21B1426853
:1032E00042F40062426003E0426822F400624260FD
:1032F0007047F0B504460D4600200021092D11DD70
:10330000E068A5F10A0606EB4607072606FA07F16C
:103310008843A5F10A0606EB460603FA06F10843C0
:10332000E0600CE0206905EB4507072606FA07F187
:10333000884305EB450603FA06F108432061072A96
:103340000FDA606B561E06EB86071F2606FA07F19A
:103350008843561E06EB860605FA06F108436063AD
:1033600022E00D2A0FDA206BD61F06EB86071F26F8
:1033700006FA07F18843D61F06EB860605FA06F122
:103380000843206310E0E06AA2F10D0606EB860711
:103390001F2606FA07F18843A2F10D0606EB860602
:1033A00005FA06F10843E062F0BD21B1826842F4FB
:1033B0008012826003E0826822F48012826070478B
:1033C0000146C86C80B2704763480068704721B1FD
:1033D000426842F48062426003E0426822F4806204
:1033E0004260704721B1426842F48052426003E07B
:1033F000426822F48052426070470A460021816888
:1034000021F4E04111438160704721B1826842F4A8
:103410000042826003E0826822F4004282607047CA
:1034200021B1826842F40212826003E0826822F4D1
:10343000021282607047014600208A6802F400127E
:103440000AB1012000E000207047F0B5044615469F
:10345000002000220026092911DDE068A1F10A07F9
:1034600007EB470C072707FA0CF29043A1F10A0774
:1034700007EB470703FA07F21043E0600CE020690E
:1034800001EB410C072707FA0CF2904301EB4107CF
:1034900003FA07F210432061A06BC0F30156EF1C42
:1034A00006F1010CA7EB0C0707EB870C1F2707FAA7
:1034B0000CF29043EF1C06F1010CA7EB0C0707EB95
:1034C000870701FA07F21043A063F0BD10B50A4662
:1034D00000210023816B21F44011531E41EA035166
:1034E000816310BD4250704702465018806A80B216
:1034F00070470A4600214168184B1940114341604A
:1035000070474162826270470A460021416821F09B
:103510001F0111434160704740B10F4944390968A8
:1035200041F400010C4A443A116007E00A49443969
:10353000096821F40001084A443A116070470246C4
:10354000002013680B405BB101200AE000DCFEBFE5
:10355000FFFEF0FFFDF7F1FF4C240140FFFD3FFFB0
:1035600000207047CA430260704770B502460020D1
:10357000002300240B125568CEB205EA0604156834
:103580001D4015B10CB1012000E0002070BD0022EB
:103590000A12D34303607047016821F00101016002
:1035A0000021016041608160C160874A811A9042B8
:1035B0005BD012DC854AA0EB020190423AD007DCD6
:1035C00083490144D9B1142922D028297AD128E08D
:1035D000142938D0282975D13EE0B1F56C7F5BD035
:1035E00006DCB1F5627F49D0B1F5677F6AD14CE066
:1035F000B1F5717F57D0B1F5767F63D15BE0734948
:103600004439496841F00F01704A443A51605AE028
:103610006E494439496841F0F0016C4A443A5160BE
:1036200051E06A494439496841F47061674A443A53
:10363000516048E065494439496841F47041634A42
:10364000443A51603FE061494439496841F470218E
:103650005E4A443A516036E05C494439496841F475
:1036600070015A4A443A51602DE05849443949683A
:1036700041F07061554A443A516024E05549096867
:1036800041F00F01534A11601DE05249096841F0B1
:10369000F001504A116016E04E49096841F470612A
:1036A0004C4A11600FE04B49096841F47041494AA6
:1036B000116008E006E04749096841F47021454A75
:1036C000116000E000BF00BF704710B50022026823
:1036D00047F6F0739A430C6A8B6823430C692343C3
:1036E0004C6923438C692343CC6923434C6A2343AD
:1036F0008C6A23431A430260CB6843600B68836083
:103700004B68C36010BD0021016041608160C160F1
:10371000016141618161C161016241628162704701
:1037200021B1026842F00102026003E0026822F067
:103730000102026070471AB103680B43036002E0A4
:1037400003688B43036070470146486880B2704746
:1037500001460020002201F080531BB11D4B1B1FAE
:103760001A6802E0194B443B1A6802EA01030BB1E4
:10377000012000E00020704700F0805111B1154990
:10378000086002E011494439486070470146002052
:10379000002201F080531BB10E4B1B1F1A6802E080
:1037A0000A4B443B1A6802EA01030BB1012000E016
:1037B0000020704700F0805111B10649086002E016
:1037C000024944394860704780000240440002408A
:1037D000F8FFFDBF040402400CB5002001900090EA
:1037E0004748006840F480304549086000BF4448BD
:1037F000006800F4003000900198401C019000988F
:1038000018B90198B0F5A06FF1D13D48006800F4F7
:10381000003010B10120009001E0002000900098DD
:10382000012844D13748006840F01000354908604D
:103830000846006820F0030008600846006840F071
:10384000020008602E4840682D49486008464068DC
:1038500048600846406840F4806048600846406818
:1038600020F47C1048600846406840F4E810486046
:103870000846006840F08070086000BF204800687B
:1038800000F000700028F9D01D48406820F00300C7
:103890001B4948600846406840F00200486000BF8D
:1038A0001748406800F00C000828F9D101E000BF7B
:1038B000FEE70CBD10B5FFF78FFF10BD10B5104827
:1038C000006840F001000E490860084640680E4953
:1038D00008400B494860084600680C490840084900
:1038E00008600846006820F48020086008464068A8
:1038F00020F4FE00486000208860FFF7DBFF10BD69
:1039000000100240002002400000FFF8FFFFF6FE1A
:1039100000BFFEE7012806D0022805D0032804D006
:10392000042804D102E003E002E001E000E000BF6F
:1039300000BF00BFFEE71A4810B5007848B101F09B
:10394000EDF930B1174900EB400001EB4010603851
:1039500010BD154810BD154A10B511690346082958
:1039600000D3FEE7124800EB0110491C18601161FA
:1039700000F0B2FD012010BD09490978002905D0E9
:1039800000684FF6FF71DFF82CC000DF7047044974
:103990000978002903D00068DFF81CC000DF7047F9
:1039A00081000020C81A0020CC1F00205C000020ED
:1039B000E81E0020C1450008E9440008004870479F
:1039C000CC1F002010B50446AFF300802046BDE8B0
:1039D0001040FCF7F8BB704770477047014918204A
:1039E000ABBEFEE7260002007546FFF7E7FFAE46D6
:1039F00005006946534620F00700854618B020B5FB
:103A0000FCF7A0FCBDE820404FF000064FF0000797
:103A10004FF000084FF0000B21F00701AC46ACE876
:103A2000C009ACE8C009ACE8C009ACE8C0098D46E3
:103A3000704770470000000010B5002A06DA22F037
:103A40000042D21D22F00703102203E0D21C22F014
:103A500003030C2213B19C188C4201D9012010BD24
:103A6000024401448360C0E90021C91AD018884289
:103A700002D810600246F9E70020106010BD000077
:103A800008480068C0010BD507480068C00707D088
:103A9000054880380068002802DA044901200870CF
:103AA00070470000FCED00E0800E00E0A400002064
:103AB0004FF06042D36F002BFCD0036BD367D36F02
:103AC000002BFCD0C07840EA0120A2F87C007047AF
:103AD0004FF06041CA6F002AFCD081F87C0070472B
:103AE0000EB5802200B109B110460AE00178012923
:103AF000FAD101A900F046F8042801D0002000E026
:103B00001020DDE9011203B000BD70B50D460400C0
:103B100003D012B92078012801D0802070BD204642
:103B200000F088FB28B12946204600F054F8002018
:103B300070BD812070BD70B50C4600F08BFF4FF05A
:103B4000004108B1220C01D0084670BD058BC17838
:103B5000A0B200F003F8284670BD00000A460146F6
:103B6000074810B500EB820050F8040C002805D07F
:103B700000F0A8FDBDE8104000F094BD10BD0000AD
:103B80007C1A002010B504468089002822D0608964
:103B900004EB8000006908606078022805D10021EC
:103BA000204600F08FFD00F07DFD04F10C0000BF09
:103BB000D0E85F1F491E8AB2C0E8512F0029F7D113
:103BC0006089401C80B26081E189884201D1002077
:103BD0006081042010BD10B500F074FDBDE81040F8
:103BE00000F060BDEFF3058109B182207047DFF876
:103BF00008C000DF704700002D4D0008EFF305807E
:103C000008B182207047EFF31480C00703D0DFF8BB
:103C10000CC000DF704701F093B80000414D000870
:103C200088B0EFF3058010B1822008B07047EFF341
:103C3000148010F00301134806D001291BD002297B
:103C400011D0032919D113E008A981F3098800785C
:103C5000C0070BD05FF0020080F31488BFF34F8FD2
:103C6000BFF36F8F09E00078C00706D10320F3E7A8
:103C70000078C00701D0FF20D7E7DFF80CC000DFD5
:103C8000D3E70000E8510008B14D0008EFF30582CA
:103C90000AB100207047EFF31482064B02F00102D4
:103CA0005B781A4303D0DFF810C000DF704701F0E3
:103CB000A3B8000080000020F94D0008EFF3058252
:103CC0000AB1FFF70DBFDFF808C000DF7047000042
:103CD0001D4E0008EFF305830BB1FFF716BFDFF8A9
:103CE00008C000DF70470000574E0008EFF3058161
:103CF00039B9EFF31481C90703D0DFF80CC000DF36
:103D0000704701F081B9000009500008EFF3058108
:103D100009B100207047EFF31481064A01F0010158
:103D20005278114303D0DFF810C000DF704701F074
:103D3000ADB80000800000208D4E0008EFF3058232
:103D40003AB9EFF31482D20703D0DFF80CC000DFDA
:103D5000704701F05EB9000013500008EFF30582D0
:103D60000AB1FFF7E8BEDFF808C000DF70470000C7
:103D7000B54E0008EFF305830BB182207047DFF8E2
:103D800008C000DF70470000D94E0008EFF305823D
:103D90000AB100207047EFF31482064B02F00102D3
:103DA0005B781A4303D0DFF810C000DF704701F0E2
:103DB000BDB80000800000202D4F0008DFF80CC0C7
:103DC00000DFDFF80CC000DFFEE700009D4F0008B9
:103DD000B94F0008DFF804C000DF7047F14F00085A
:103DE000094C4FF0FF3529462068FFF767FF024670
:103DF0000846102AF7D1FFF7EDFF0028F3D002465E
:103E000008469047EFE7000060000020074801687F
:103E10004FF0E020416100218161072101610448E8
:103E2000016841F07F41016040177047E45100088C
:103E300020ED00E0704750E8001F31B10B6840E80A
:103E40000032002AF7D108467047BFF32F8FFAE7F8
:103E500010B568B161B10B3121F00302016844680B
:103E60000B1A1B1B934205D2084609680029F5D19D
:103E7000002010BD210007D021180368C1E90032DD
:103E8000016001F1080010BD4260083010BD000063
:103E900070B50D46002812D04FF6FF71084C8842CD
:103EA00004D222680146104600F03AFC20684570B2
:103EB000044800F029F9BDE8704000F0F5BC70BD81
:103EC000880000209C1F00200F4810B50D49426853
:103ED0000E480B680068934204D00A60CB88421EEB
:103EE0001A448A808A8880B282420AD100200860FF
:103EF000054800F009F90146BDE81040024800F00D
:103F000033BC10BD9C0000209C1F002098000020A6
:103F100070B5194DE86800282CD0A88A401EA882E8
:103F2000002621E0A06838B161684160606810B186
:103F3000A16881606660A6600F482146183800F0CD
:103F400013FCA08AA8826078042804D10B49E08A77
:103F500009880844A08201206070E068E860E06899
:103F600008B10561E6602661A88A002802D1EC68E4
:103F7000002CD7D170BD0000B41F00209800002095
:103F800070B504000FD00D4DA17801262868827805
:103F900091420CD900F004FC286846702046BDE828
:103FA000704000F081BC064800F0AEF8F7E766709C
:103FB0002146BDE87040024800F0D6BB88000020D2
:103FC0009C1F00200321FFF763BF000010B50446CB
:103FD000008B084320836278618B062A18D0052A5B
:103FE00019D1084217D001EA000262838843208376
:103FF000204600F000FC01206070628B0821204602
:1040000000F0F5FB2146BDE81040034800F0ACBBD2
:1040100031EA0002EAD010BD9C1F0020024615487C
:1040200010B500EB810050F8044C002C21D0208BFF
:10403000104320836278618B062A17D0052A18D195
:10404000084216D001EA000262838843208320469A
:1040500000F0D1FB01206070628B0821204600F047
:10406000C6FB2046BDE81040FFF78ABF31EA0002D8
:10407000EBD010BD7C1A002070B503460C480D46ED
:104080000468208B42B133EA000101D0062109E027
:1040900098432083022070BD10EA030101D06183A0
:1040A000F6E7052163832846FFF7F2FE012070BD85
:1040B00088000020814202D342688A4201D8012050
:1040C000704702680A60BFF35F8F50E8003F0A68DC
:1040D0009A42F6D140E80012002AF2D1002070473F
:1040E00068B161B10022083902E00246006830B1CF
:1040F0008842FAD12AB10068106000207047012080
:10410000704700214160F8E70146406842684A6014
:104110000B780022022B05D0012B03D0032B01D0FA
:104120004260704743680BB199604260826070479B
:10413000810700D00020704770B504460020154666
:10414000207001226270A17084F824106060A06069
:10415000E06020612062A082E0822083608384F896
:104160002500E08C18B90548FFF765FEE062294696
:104170002046BDE8704000F01DB80000D8040020C3
:1041800008B1082901D2012070470144091F00220B
:1041900001600A6042601046704700000348002139
:1041A000016003490988C180704700009C0000201D
:1041B000D851000870B5C28C1C4D930802D12A88D2
:1041C000C2F38D03C26A02EB8302540700D5121FAB
:1041D0004FF0807442E9021400242646B2F14002F6
:1041E00042F82460641C0E2CFAD3C4691462826203
:1041F00001632968C90014D5112B12D94FF0FF3182
:10420000103B11EB53014FF0CC3305D042F8043C86
:1042100042F8083D491EF9D1C16A121F8A4200D9ED
:104220001360C06A0249016070BD0000D4510008EB
:10423000A52E5AE2C1898089081A704701220270AE
:104240000022427082704260028142811039828174
:104250008908C181704700002DE9F041044640689B
:104260000E464FF0000804F10C05E8B36078012712
:1042700001283ED0022813D003285CD10846FFF75E
:10428000DAFD050057D02046FFF73EFF04462946D9
:1042900000F0AAFA6770204600F0ADFA214621E04E
:1042A0002046FFF731FF0646002100F09DFA2189E4
:1042B000F06904EB81010861D5E85F0F401C81B211
:1042C000C5E8501F0028F7D12089401C80B220810A
:1042D000E189884201D1A4F808807770304600F067
:1042E0008AFA3146174800E00CE0BDE8F04100F0E2
:1042F0003BBA2046FFF708FF04463246102100F083
:1043000076FAC7E7A089E189884216D2208904EBB2
:1043100080000661D5E85F0F401C81B2C5E8501FE0
:104320000028F7D12089401C80B22081E189884291
:1043300001D1A4F80880BDE8F081BDE8F041032078
:10434000FFF7E8BA9C1F002070B5164642680D467C
:1043500012B1417801290BD08189C4890023A1427F
:1043600024D19EB11D4C216892B100F0FDF916E0F8
:10437000FFF7CAFE04462A46102100F038FA20460C
:1043800000F039FA2046FFF7FBFD25E0012070BD63
:10439000416021684B60216888600221417020687B
:1043A0000821C5613046FFF773FDEFE7018900EB97
:1043B00081010D6100F10C01D1E85F2F521C94B214
:1043C000C1E8524F002AF7D10189491C89B2018105
:1043D000C289914200D10381002070BD8800002075
:1043E00070B50446808915460026C0B3608904EB89
:1043F0008000006908606089401C80B26081E189AA
:10440000884200D16681606810B1607802280BD0C4
:1044100014F10C04D4E85F0F401E81B2C4E8501FB1
:104420000028F7D1002070BD2046FFF76DFE05463D
:10443000002100F0D9F92189E86904EB81010861C4
:104440002089401C80B22081E189884200D12681E8
:10445000284600F0D0F92846FFF792FDE2E7FFE793
:104460003DB10B48626801682AB1204600F07CF932
:1044700008E0012070BD616001684E6000688460E2
:104480000120607008212846FFF702FDF1E70000D7
:1044900088000020002814D0411C13D00C4A4FF68D
:1044A000FE7190420CD800EB4002C2EBC0120948EA
:1044B000036803EBC202521EB2FBF3F0884204D938
:1044C000084670474FF6FF70704780B27047000093
:1044D00000093D00F45100080321017000214180D2
:1044E00041608160C16070472DE9F0410446408819
:1044F00020B1314DA1682A68914202D0FF20BDE869
:10450000F081401E0004000C608053D12968086AC5
:10451000A04209D1E068086208E0C268A24202D164
:10452000E268C26002E010460028F6D191F824004B
:104530000A6A06E053681BB19B78834200D918468B
:10454000D268002AF6D18870DFF870806168012691
:1045500011B32046FFF7D8FD0746002100F044F9CB
:10456000384600F048F96680A760386AE0603C622F
:104570002968D8F804008A788078824201D33846C6
:1045800016E00E4800F0F0F839460C4800F0ECF860
:10459000286846707E700AE0D8F804108A78296886
:1045A000824207D9054800F0DFF8286846700020ED
:1045B000FFF7E6FC0020A2E7880000209C1F0020F7
:1045C00070B5184D0E4604464188286839B1A16877
:1045D000814209D16088401C6080002070BDA060CD
:1045E000016AE1600462F5E776B18A7880788242F8
:1045F00003D28870A06800F0DDF8606830B1204612
:10460000296800F0B1F808E0012070BD28686060FA
:104610002968002048602868846009213046FFF737
:1046200037FCF1E78800002070B51B4801210268C3
:104630005170006800F0B4F8184D6C7818E000BFB5
:1046400005EBC40148680278EAB1012A20D000F0E5
:10465000FFF8E878641C844200D100240F48801CD5
:10466000D0E84F1F491EC9B2C0E8421F002AF7D147
:10467000A8780028E4D16C700948FFF745FDBDE833
:10468000704000F011B9098989B2FFF79FFCE0E79B
:104690008968FFF7E1FDDCE788000020F8190020B9
:1046A0009C1F00200548017811B10121417070471D
:1046B00003494FF0805008607047000090000020D0
:1046C00004ED00E0F0B4154DAB1CEE784FEA0507A1
:1046D000D3E84F2FB24202D1BFF32F8F11E0521C0B
:1046E000D4B2C3E8424F002AF2D100BFD7E84F2F1F
:1046F000541CB44200D10024E4B2C7E8434F002B5D
:10470000F4D1EB78934205D905EBC202C2E901016D
:10471000F0BC7047F0BC0220FFF7FCB8F81900208D
:10472000104A10B5D368ABB113469B8A03E08CB135
:104730002246A48A2344D4688B42F8D3C460D06054
:104740000261C46804B12061591A8182908A401ABA
:10475000908210BD0024C460D060C91A02619182A9
:10476000848210BDB41F002030B502780023022AD5
:1047700003D0012A01D0032A00D101238C7800E064
:104780001046426812B19578A542F9D24A6041605C
:104790001BB102B19160886030BD0020FBE70000D2
:1047A00003494A6842600022826048607047000006
:1047B0009C1F002010B5836804462BB9607801283F
:1047C0000ED1084B03E09B6818780028FBD02046E8
:1047D00000F026F82146BDE810401846FFF7C4BF98
:1047E00010BD00009C1F0020806A01627047806A33
:1047F000C0E90812704710B5016900290ED0C268DF
:10480000CA60C36800223BB18B8A848A23448B82AE
:10481000C3681961C26000E08A82026110BD0000B5
:10482000816839B142684A604168002901D08068D6
:1048300088607047054906E04A68824202D14068B4
:104840004860704711460029F6D170479C1F002030
:1048500010B5416881B1FFF757FC0446FFF7CBFF65
:104860000120607001462046FFF7BEFF2146BDE8EB
:1048700010400348FFF778BF4188491C418010BDB4
:104880009C1F002006480068D0E90A10814203D32B
:1048900000680449884202D00120FFF73BB8704706
:1048A00088000020A52E5AE2074902224860427083
:1048B000064A1278002A05D006C98A4202D0C0787A
:1048C000FFF706B97047000088000020A400002010
:1048D00070B5FFF7D5F800200446204A204902E0D1
:1048E00042F82040401C0B889842F9D31D483422DE
:1048F00001881D48FFF7A0F81C48008880B240F0EE
:1049000000421B4801681B48FFF796F81A48082226
:1049100001881A480068FFF78FF8194DFF20194ADF
:10492000E870EC8400212846FFF706FC16480421B5
:104930000170446015480170C460046184821448A9
:1049400015490560022068701248047044700978A7
:10495000C170BDE87040FFF721BC00007C1A002048
:10496000D0510008FC51000890020020D4510008EA
:1049700000520008D80400202452000868000020DB
:10498000681F0020113900089C1F0020B41F002060
:1049900088000020F8190020085200081B4810B5B4
:1049A000016841F47F01016000684FF07F4101EA36
:1049B00000201649C0431439B0FA80F00968C0F1EC
:1049C0000800C1F30221814200D3481C0F49091F8E
:1049D0000B686FF08072824063F317020A60FFF782
:1049E00015FA0B49002808600EDB00F1E021FF22D8
:1049F00081F8002400F01F0201219140400980004D
:104A000000F1E020C0F8001110BD000020ED00E032
:104A1000940000200C4810B5026801215170006814
:104A2000FFF7BEFEFFF750FA08480168491C016015
:104A3000FFF76EFA00F0F8FA0548FFF765FBBDE8EE
:104A40001040FFF731BF00008800002098000020D0
:104A50009C1F0020002805D0810702D10178002981
:104A600000D000207047000030B50B4C0023626876
:104A700005E095688D4204D813461268491B002A48
:104A8000F7D10260816012B19568691A91600BB12B
:104A9000186030BD606030BD800000202DE9F0411D
:104AA0001E46174680460D4611F0FF0F00D14D1CE3
:104AB0001848FFF7C0F9041E16D0280AE762E08400
:104AC000E9B242462046E661FFF736FB012512486F
:104AD000124905E000EB850252F8042C32B16D1C3E
:104AE0000A889542F6D90020BDE8F081002DFAD061
:104AF00000EB850040F8044C0948E570007818B1D7
:104B000001212046FEF7D4FF2046FFF739FA284658
:104B1000EAE70000900200207C1A0020D051000833
:104B2000A40000202DE9F05F584DDFF85891DFF820
:104B3000588129684FF0010A002618B1CA78AB469F
:104B4000824243D14E70FBF756FB29688862FFF71B
:104B500099FE2868046A1FE06068C0B12046FFF72C
:104B6000D3FA07460021FFF73FFE3846FFF743FE22
:104B700087F801A039464648FFF7F6FDE168A4F83A
:104B800002A0A760386AE0603C620C4604E0E0687E
:104B90006680A660E6600446002CDDD12868C278F5
:104BA00008EB820141F8046CC16A3A48FFF782FAC7
:104BB0002868C66299F8001011B10021FEF778FF4D
:104BC00035482968FFF776FA2E6056E033490988A0
:104BD00088420CD808EB800858F8045C3DB12846A0
:104BE000FFF71EFE2846FFF706FE2C6A22E0FF2094
:104BF000BDE8F09F6068C0B12046FFF785FA074620
:104C00000021FFF7F1FD3846FFF7F5FD87F801A019
:104C100039461F48FFF7A8FDE168A4F802A0A76085
:104C2000386AE0603C620C4604E0E0686680A6609A
:104C3000E6600446002CDDD148F8046C1548E96AAA
:104C4000FFF738FAEE6299F8000018B10021284603
:104C5000FEF72EFF29461048FFF72CFA0C48DBF828
:104C6000001040688B7882789A4209D981F801A0B7
:104C70000748DBF80010FFF777FD0020FFF780F909
:104C80000020B5E7A40000207C1A00208800002046
:104C90009C1F0020D804002090020020D051000862
:104CA00070B51A4D80B11A4A128890421FD8194A1D
:104CB00002EB800050F8044CCCB1A17084F82410B1
:104CC0002868A04205D014E028688170286880F820
:104CD0002410114840688078884215D90E48296808
:104CE000FFF742FD29680120487000200AE0FF20FC
:104CF00070BD2046FFF75EFD6078012804D10648AC
:104D0000FFF702FAFFF73CF9002070BD8800002091
:104D1000D05100087C1A00209C1F00200248006827
:104D2000002800D0C07870478800002010B5002807
:104D300004D0FFF7AFFBFFF745F9402010BD00009E
:104D400010B5134C207860B91248400705D11248BD
:104D500001681048FFF714FA08B1852010BDFFF76D
:104D6000B7FD0E49FF2009688870207858B90021E6
:104D70000B4800F041F80B49086000210A4800F098
:104D8000D5F80A490860012020700020607010BD2D
:104D900080000020481800200452000888000020ED
:104DA0001C520008600000200C5200085C0000202B
:104DB00070B50F4D687808B1002070BD0D4C2068AB
:104DC00090F824100020FFF76BFF2068C178FF29BE
:104DD00003D1816A203181F30988616811B960606B
:104DE00000202060FFF7DAFD01206870E4E7000092
:104DF000800000208800002010B5040005D0216844
:104E000019B1606808B102780AB1002010BD8900AC
:104E1000103189B2FFF712FA606810BD3EB5040088
:104E20000D464FF0800012D0217801290FD128467D
:104E3000FFF730FB0246204601A9FFF7D1FA01280F
:104E400001D0102003E00DB1402000E00020DDE99A
:104E5000011203B030BD70B50E460400154602D0F5
:104E60002078012801D0802070BD1046FFF712FB8A
:104E7000024631462046FFF767FA012801D000209C
:104E800070BD0DB1C12070BD812070BD10B5040092
:104E90000ED0216861B1626852B1A06840B1D21CE5
:104EA00022F0030251430C31FEF7C6FDA06810BD8D
:104EB000002010BD70B50C46FFF7CCFD4FF000414F
:104EC00008B1220C01D0084670BD058BC178A0B294
:104ED000FFF7A4F8284670BD70B504460D46000CD7
:104EE00001D086201EE008462CB1FFF7D3FA014618
:104EF000A0B2012205E0FFF7CDFA014600224FF6ED
:104F0000FF70FFF7B9F8022802D04DB1402008E049
:104F100008200CB1214605E003490968498B01E0EE
:104F200000200021324670BD8800002070B50E467A
:104F300004002BD0206848B3B4F9040010F1030F2B
:104F400024DB032822DCE16829B11148FEF780FF49
:104F500005001BD000E00025B4F90400E168001D45
:104F600040EA012133462A462068FFF797FD40B109
:104F7000084901EB8000084950F8040C826A51632B
:104F800070BD1DB129460248FFF7AAF8002070BD88
:104F9000481800207C1A0020BD3D000810B5FFF71E
:104FA000BDFE002804D0034901EB800050F8040C3A
:104FB00010BD00007C1A002010B5FFF74BFD18B1A2
:104FC000C18C19B1C46A02E0802010BD0024C078F1
:104FD000FFF7A8FDFF2806D01CB121460348FFF7C4
:104FE0007FF8002010BD812010BD0000481800206F
:104FF00010B5FFF79DF820B141690A6801691046B4
:1050000010BD0020014610BD002801D0FEF713BFDF
:10501000704710B528B1FFF74DF8002800D0862062
:1050200010BD802010BD00002DE9F041134E7468C2
:10503000002C1CD0A068124F401E4FF00108A06049
:1050400012E0254624687460002229463868FEF77D
:105050005CFD10B10420FEF75DFC6879012808D0E2
:1050600085F80480002C02D0A0680028E9D0BDE8B3
:10507000F0812846E968FFF7F7FCF3E7800000209D
:1050800060000020030000000A000000D40000209F
:105090000300000004010020030000000A000000DB
:1050A0002C010020030000005C0100200300000030
:1050B0000A0000008401002003000000B401002069
:1050C000030000000A000000DC01002003000000D3
:1050D0000C020020030000000A000000340200203F
:1050E00003000000640200206D080008FEFF0000BD
:1050F0000100000000000000910A0008FFFF00000E
:105100000100000000000000370B00080100000053
:105110000100000000000000230C00080000000057
:1051200001000000000000003B0D0008000000002E
:105130000100000000000000C10E00080000000097
:10514000010000000000000011140008020000002F
:105150000100000000000000000C01408000000081
:10516000000C014000010000000801400010000098
:10517000000C014020000000000C01404000000035
:10518000000C014000100000000C01400002000073
:10519000001001400020000000100140004000000D
:1051A00000100140008000000008014000080000DD
:1051B000000C014001000000000C01400400000050
:1051C000000C014002000000000801401000000037
:1051D0000B000000F001020105000100001BB700F8
:1051E0000C000000DF2E00000100000002000100A2
:1051F00050000400E8030000000000004802000026
:1052000070130000B001000010000000E13D000834
:105210000100000001000000C800000004000000C0
:10522000A81A0020000000004852000800000020DA
:10523000A80000006C010008F0520008A80000203F
:105240008821000088010008000000000000000024
:10525000000000000000000000000000000000004E
:10526000000000000000000000000000000000003E
:10527000000000000000000000000000000000002E
:10528000000000000000000000000000000000001E
:1052900000000000010203040102030406070809DC
:1052A00002040608000000000000000000000000EA
:1052B0000000000000000000E116000800000000EF
:1052C00001000000C8000000000000000000000015
:1052D00000000000000000000000000000000000CE
:1052E00000000000000000000000000000000000BE
:0400000508000323C9
:00000001FF
