:020000040800F2
:100000000004002023030008310300083303000824
:10001000350300083703000839030008000000001A
:10002000000000000000000000000000590200086D
:100030003D03000800000000D10200080D03000885
:100040004303000843030008430300084303000878
:100050004303000843030008430300084303000868
:100060004303000843030008430300084303000858
:100070004303000843030008430300084303000848
:100080004303000843030008430300084303000838
:100090004303000843030008430300084303000828
:1000A0004303000843030008430300084303000818
:1000B0004303000843030008430300084303000808
:1000C00043030008430300084303000843030008F8
:1000D00043030008430300084303000843030008E8
:1000E00043030008430300084303000843030008D8
:1000F00043030008430300084303000843030008C8
:1001000043030008430300084303000843030008B7
:1001100043030008430300084303000843030008A7
:100120004303000843030008430300084303000897
:1001300000F002F800F03AF80AA090E8000C8244BF
:100140008344AAF10107DA4501D100F02FF8AFF29C
:10015000090EBAE80F0013F0010F18BFFB1A43F0A5
:1001600001031847E41F000004200000103A24BFD8
:1001700078C878C1FAD8520724BF30C830C144BF0C
:1001800004680C607047000000230024002500264E
:10019000103A28BF78C1FBD8520728BF30C148BFEA
:1001A0000B6070471FB51FBD10B510BD00F0F0FD0E
:1001B0001146FFF7F7FF0FB400F00CF80FBC00F08A
:1001C000D3F800F0D3FD03B4FFF7EEFF03BC00F05B
:1001D000D9FD000004B000F0C1FE0448002100F089
:1001E00011FF00F0CDFE00F0C1FD00003821000835
:1001F00080F309887047EFF309807047684680F301
:10020000098804480078C00714BF0220032080F347
:1002100014887047F8200008DFF818C0EFF3058352
:100220001B0618BF6047EFF31483DB0708BF604766
:1002300000DF7047AB100008DFF818C0EFF305834C
:100240001B0618BF6047EFF31483DB0708BF604746
:1002500000DF704791120008EFF30980816911F8FF
:10026000021CF1B990E80F10E047EFF3098C8CE81D
:100270000700144B93E8060091420FD039B12CE9E6
:10028000F00FC1F828C00CB401F0A6FB0CBC1A603A
:10029000D2F828C0BCE8F00F8CF309886FF0020E8A
:1002A000704710B5084A1268914209D8074C54F8B3
:1002B000214090E80F10A047EFF3098C8CE80F0065
:1002C00010BD000030000020DC0D0008DC0D00082F
:1002D00001F054FA0C4B93E80600914210D0EFF372
:1002E000098C2CE9F00FC1F828C00CB401F074FBA4
:1002F0000CBC1A60D2F828C0BCE8F00F8CF3098857
:100300006FF0020E704700003000002001F02CFC5E
:10031000E0E7000000F0C8FE01F026FCDAE700008C
:1003200070470B4880470B4981F308880A4800470B
:10033000FEE7FEE7FEE7FEE7FEE7FEE7FEE7FEE795
:10034000FEE7FEE705480649044A064B70470000F1
:100350002103000860140020310100086012002011
:10036000601400206012002000F07CFC00F01CF8FB
:1003700000F03FF815E001210A4800F06AF880B962
:1003800001220221074800F0ACF9012204210548AE
:1003900000F0A7F900BF0121024800F084F900280D
:1003A000F9D0E8E70008014008B50121102000F06D
:1003B00083FB4FF40050ADF8000010208DF80300CF
:1003C00003208DF802006946044800F0D9F84FF484
:1003D0000051024800F081F908BD00000010014002
:1003E00001B502E00098401E009000980028F9D165
:1003F00008BD08B50121042000F05EFB01210820A2
:1004000000F05AFB0120ADF800008DF802004820F2
:100410008DF803006946254800F0B2F80220ADF8D7
:10042000000001208DF8020010208DF803006946BD
:100430001E4800F0A5F80420ADF8000001208DF85A
:10044000020010208DF803006946184800F098F863
:1004500008BD2DE9F04105460E460024002731462F
:10046000284600F020F9F8B9C82000F06BFD12E032
:100470003146284600F017F928B9322000F062FD15
:10048000601C84B200E000243146284600F00BF9DD
:10049000012800D100E0EBE700BF642C02DD002062
:1004A000BDE8F0810120FBE70120F9E700080140E9
:1004B00010B50446C649601A8C422FD009DCC548E5
:1004C000204480B1B0F5806F16D0B0F5006F4AD1EE
:1004D0001BE0B0F5806F2AD0B0F5006F30D0B0F5DA
:1004E000406F40D135E00121042000F0FFFA0021E7
:1004F000042000F0FBFA37E00121082000F0F6FAB2
:100500000021082000F0F2FA2EE00121102000F076
:10051000EDFA0021102000F0E9FA25E00121202069
:1005200000F0E4FA0021202000F0E0FA1CE00121B4
:10053000402000F0DBFA0021402000F0D7FA13E061
:100540000121802000F0D2FA0021802000F0CEFAB4
:100550000AE00121080200F0C9FA00214FF480707E
:1005600000F0C4FA00E000BF00BF10BD10B50121CB
:10057000084600F0BBFA0021012000F0B7FA10BDD8
:100580002DE9F0410246002500260020002300242A
:10059000002791F803C00CF00F0591F803C00CF090
:1005A000100CBCF1000F03D091F802C04CEA050515
:1005B00091F800C0BCF1000F31D0146800202BE08E
:1005C0004FF0010C0CFA00F3B1F800C00CEA03067E
:1005D0009E4220D183004FF00F0C0CFA03F7BC436E
:1005E00005FA03FC4CEA040491F803C0BCF1280F9F
:1005F00006D14FF0010C0CFA00FCC2F814C00AE05E
:1006000091F803C0BCF1480F05D14FF0010C0CFA72
:1006100000FCC2F810C0401C0828D1D31460B1F807
:1006200000C0BCF1FF0F34DD546800202EE000F163
:10063000080C4FF0010808FA0CF3B1F800C00CEAFE
:1006400003069E4221D183004FF00F0C0CFA03F7F2
:10065000BC4305FA03FC4CEA040491F803C0BCF166
:10066000280F05D100F1080C08FA0CF8C2F8148024
:1006700091F803C0BCF1480F07D100F1080C4FF00E
:10068000010808FA0CF8C2F81080401C0828CED3E4
:100690005460BDE8F0814FF6FF7101800221817046
:1006A0000421C17070470246002093680B400BB1D3
:1006B000012000E0002070470146886880B2704742
:1006C00002460020D3680B400BB1012000E000205F
:1006D00070470146C86880B2704701617047416148
:1006E00070470AB1016100E041617047C160704725
:1006F0004FF480320A43826181618261826982693A
:10070000704702460020344B18684FF6807318403B
:1007100040EA02100843304B186070472F49C86107
:100720007047F0B50A4600230024002100252A4E18
:100730007168C0F3034583B200F44016B6F5401F5C
:1007400008D121F07061244E766826F07066224F41
:100750007E6012E000F48016B6F5801F06D10326F5
:1007600006FA05F4A14341F0706106E0460D36013A
:1007700003FA06F6B14341F0706122B1460D36012D
:1007800003FA06F63143144E7160F0BD30B5002215
:100790008B071C0F0F2303FA04F20F4B08338C1046
:1007A00053F8243093430C4C08348D1044F8253012
:1007B00023468C1053F824308C07240F00FA04F4DD
:1007C0002343054C08348D1044F8253030BD00001B
:1007D0000014014000F8FEBF00000140000020426C
:1007E000DE48006840F00100DC49086008464068C7
:1007F000DB490840D949486008460068D9490840A3
:10080000D64908600846006820F480200860084641
:10081000406820F4FE004860002088607047CF499F
:10082000096821F48031CD4A11601146096821F42C
:1008300080211160B0F5803F03D0B0F5802F0ED13C
:1008400006E0C649096841F48031C44A116007E0F6
:10085000C249096841F4A021C04A116000E000BF0C
:1008600000BF704710B501460022002300204A1146
:10087000012A02D1B94C236806E0022A02D1B74C02
:10088000236A01E0B54C636A01F01F020124944021
:100890001C400CB1012000E0002010BD38B5002044
:1008A00000900024002500BF3120FFF7DBFF054644
:1008B0000098401C00901DB90098B0F5A06FF3D1CE
:1008C0003120FFF7CFFF08B1012400E000242046CB
:1008D00038BD01460020A14A106820F0F80040EA27
:1008E000C10010607047A0490860704702460020B0
:1008F0009A4B586820F47C1042EA01031843974B46
:100900005860704798490866704701460020934A2E
:10091000506820F003000843506070478F484068DB
:1009200000F00C007047014600208C4A506820F00F
:10093000F00008435060704701460020874A506825
:1009400020F4E06008435060704701460020834A6D
:10095000506820F4605040EAC1005060704729B1EF
:100960007E4A527A02437D4B5A7204E07B4A527AA5
:1009700082437A4B5A7270477B49D831086070477E
:1009800001460020754A506820F4404008435060FA
:1009900070470021714A20321170704A82F820108D
:1009A000012802D004280AD104E001216B4A203238
:1009B000117005E00521694A2032117000E000BF86
:1009C00000BF70476949086070476449096A01437C
:1009D000624A11627047654944390860704730B512
:1009E00000210022002400235C4D6D6805F00C01FD
:1009F00021B1042905D0082923D105E05C4D05600B
:100A000022E05B4D05601FE0544D6D6805F47012E7
:100A1000022505EB9242514D6D6805F480341CB9F6
:100A2000544D554305600BE04C4D6D6805F40035A1
:100A30001DB1504D5543056002E04D4D55430560D5
:100A400002E04B4D056000BF00BF444D6D6805F0EE
:100A5000F0010909484D6B5C0568DD4045603F4D7C
:100A60006D6805F4E061090A434D6B5C4568DD4043
:100A700085603A4D6D6805F46051C90A3E4D6B5C66
:100A80004568DD40C560354D6D6805F44041890B12
:100A90003A4D6B5CC568B5FBF3F5056130BD29B116
:100AA0002E4A526902432D4B5A6104E02B4A526987
:100AB00082432A4B5A61704729B1284A92690243FE
:100AC000264B9A6104E0254A92698243234B9A613E
:100AD000704729B1214AD2690243204BDA6104E010
:100AE0001E4AD26982431D4BDA61704729B11B4A05
:100AF000D2680243194BDA6004E0184AD268824394
:100B0000164BDA60704729B1144A12690243134B3D
:100B10001A6104E0114A12698243104B1A6170474E
:100B200012494039086070470F49C86470470B4943
:100B3000C87170470948406A40F0807007494862B0
:100B4000704701460020054A92680A400AB1012018
:100B500000E0002070470149887270470010024091
:100B60000000FFF8FFFFF6FE000042428004424210
:100B700000127A0000093D00000000201000002053
:100B80000CB50020019000904748006840F4803088
:100B90004549086000BF4448006800F400300090F8
:100BA0000198401C0190009818B90198B0F5A06F09
:100BB000F1D13D48006800F4003010B101200090F0
:100BC00001E0002000900098012844D137480068D7
:100BD00040F01000354908600846006820F0030026
:100BE00008600846006840F0020008602E4840682F
:100BF0002D4948600846406848600846406840F40F
:100C0000806048600846406820F47C1048600846D0
:100C1000406840F4E81048600846006840F0807082
:100C2000086000BF2048006800F000700028F9D07C
:100C30001D48406820F003001B4948600846406892
:100C400040F00200486000BF1748406800F00C0008
:100C50000828F9D101E000BFFEE70CBD10B5FFF791
:100C60008FFF10BD10B51048006840F001000E491C
:100C70000860084640680E4908400B49486008462D
:100C800000680C490840084908600846006820F4DC
:100C9000802008600846406820F4FE00486000207C
:100CA0008860FFF7DBFF10BD00100240002002400B
:100CB0000000FFF8FFFFF6FE00BFFEE7012806D0A8
:100CC000022805D0032804D0042804D102E003E060
:100CD00002E001E000E000BF00BF00BFFEE71A48ED
:100CE00010B5007848B101F0C3F830B1174900EBF6
:100CF000400001EB4010603810BD154810BD154A8A
:100D000010B511690346082900D3FEE7124800EB2D
:100D10000110491C1860116100F080FC012010BD19
:100D200009490978002905D000684FF6FF71DFF8FE
:100D30002CC000DF704704490978002903D00068FF
:100D4000DFF81CC000DF704729000020F80C0020ED
:100D5000FC110020140000201811002005170008C5
:100D60002D16000800487047FC11002010B50446FD
:100D7000AFF300802046BDE81040FFF724BA70476B
:100D80007047704701491820ABBEFEE726000200FD
:100D90007546FFF7E7FFAE4605006946534620F06B
:100DA0000700854618B020B5FFF7CCFABDE8204013
:100DB0004FF000064FF000074FF000084FF0000B17
:100DC00021F00701AC46ACE8C009ACE8C009ACE8CA
:100DD000C009ACE8C0098D467047704700000000AC
:100DE00010B5002A06DA22F00042D21D22F00703D5
:100DF000102203E0D21C22F003030C2213B19C1832
:100E00008C4201D9012010BD024401448360C0E935
:100E10000021C91AD018884202D810600246F9E7AA
:100E20000020106010BD000008480068C0010BD50C
:100E300007480068C00707D00548803800680028C8
:100E400002DA04490120087070470000FCED00E060
:100E5000800E00E04C0000204FF06042D36F002B6A
:100E6000FCD0036BD367D36F002BFCD0C07840EA73
:100E70000120A2F87C0070474FF06041CA6F002A41
:100E8000FCD081F87C0070470EB5802200B109B11A
:100E900010460AE001780129FAD101A900F020F8F2
:100EA000042801D0002000E01020DDE9011203B089
:100EB00000BD70B50D46040003D012B9207801289A
:100EC00001D0802070BD204600F0A2FA28B129464A
:100ED000204600F030F8002070BD812070BD000079
:100EE00010B504468089002824D0608904EB800076
:100EF00000690860606840B16078022805D100216F
:100F0000204600F089FC00F077FC04F10C0000BFE3
:100F1000D0E85F1F491E8AB2C0E8512F0029F7D1DF
:100F20006089401C80B26081E189884201D1002043
:100F30006081042010BD10B500F06EFCBDE81040CB
:100F400000F05ABCEFF3058109B182207047DFF849
:100F500008C000DF70470000811E0008EFF3058025
:100F600008B182207047EFF31480C00703D0DFF888
:100F70000CC000DF704700F08DBF0000951E000818
:100F800088B0EFF3058010B1822008B07047EFF30E
:100F9000148010F00301134806D001291BD0022948
:100FA00011D0032919D113E008A981F30988007829
:100FB000C0070BD05FF0020080F31488BFF34F8F9F
:100FC000BFF36F8F09E00078C00706D10320F3E775
:100FD0000078C00701D0FF20D7E7DFF80CC000DFA2
:100FE000D3E70000F8200008051F0008EFF3058292
:100FF0000AB1FFF749BFDFF808C000DF7047000003
:10100000711F0008EFF305820AB100207047EFF36B
:101010001482D20702D1044A52781AB1DFF80CC008
:1010200000DF704700F0C2BF28000020AD1F00089D
:10103000DFF80CC000DFDFF80CC000DFFEE70000C7
:101040001920000835200008DFF804C000DF7047D1
:101050006D200008094C4FF0FF3529462068FFF746
:10106000C5FF02460846102AF7D1FFF7EDFF00281A
:10107000F3D0024608469047EFE700001800002032
:10108000074801684FF0E02041610021816107219C
:1010900001610448016841F07F41016040177047D9
:1010A000F420000820ED00E0704750E8001F31B147
:1010B0000B6840E80032002AF7D108467047BFF3BA
:1010C0002F8FFAE710B568B161B10B3121F003023F
:1010D000016844680B1A1B1B934205D20846096835
:1010E0000029F5D1002010BD210007D02118036888
:1010F000C1E90032016001F1080010BD4260083012
:1011000010BD000070B50D46002812D04FF6FF71DB
:10111000084C884204D222680146104600F0AAFB1F
:1011200020684570044800F0DDF8BDE8704000F02C
:1011300065BC70BD30000020CC1100200F4810B5F8
:101140000D4942680E480B680068934204D00A605B
:10115000CB88421E1A448A808A8880B282420AD191
:1011600000200860054800F0BDF80146BDE81040C9
:10117000024800F0A3BB10BD44000020CC110020A9
:101180004000002070B5194DE86800282CD0A88ACE
:10119000401EA882002621E0A06838B16168416045
:1011A000606810B1A16881606660A6600F48214642
:1011B000183800F083FBA08AA8826078042804D144
:1011C0000B49E08A09880844A08201206070E06829
:1011D000E860E06808B10561E6602661A88A002839
:1011E00002D1EC68002CD7D170BD0000E4110020C2
:1011F0004000002070B504000FD00D4DA1780126ED
:101200002868827891420CD900F074FB28684670F7
:101210002046BDE8704000F0F1BB064800F062F8DF
:10122000F7E766702146BDE87040024800F046BB13
:1012300030000020CC1100200321FFF763BF000025
:1012400010B50446008B084320836278618B062A20
:1012500018D0052A19D1084217D001EA000262838A
:1012600088432083204600F070FB01206070628B71
:101270000821204600F065FB2146BDE810400348E8
:1012800000F01CBB31EA0002EAD010BDCC110020F6
:10129000814202D342688A4201D801207047026825
:1012A0000A60BFF35F8F50E8003F0A689A42F6D1A8
:1012B00040E80012002AF2D10020704768B161B105
:1012C0000022083902E00246006830B18842FAD1B3
:1012D0002AB100681060002070470120704700218B
:1012E0004160F8E70146406842684A600B78002296
:1012F000022B05D0012B03D0032B01D04260704795
:1013000043680BB19960426082607047810700D0EA
:101310000020704770B50446002015462070012259
:101320006270A17084F824106060A060E0602061A9
:101330002062A082E0822083608384F82500E08C14
:1013400018B90548FFF7B1FEE06229462046BDE81E
:10135000704000F01DB800009802002008B1082974
:1013600001D2012070470144091F002201600A6078
:1013700042601046704700000348002101600349A5
:101380000988C1807047000044000020E820000860
:1013900070B5C28C1C4D930802D12A88C2F38D030C
:1013A000C26A02EB8302540700D5121F4FF080740B
:1013B00042E9021400242646B2F1400242F82460B9
:1013C000641C0E2CFAD3C46914628262016329681A
:1013D000C90014D5112B12D94FF0FF31103B11EB7E
:1013E00053014FF0CC3305D042F8043C42F8083D9D
:1013F000491EF9D1C16A121F8A4200D91360C06A1E
:101400000249016070BD0000E4200008A52E5AE2E8
:10141000C1898089081A7047012202700022427037
:101420008270426002814281103982818908C181C3
:10143000704700002DE9F041044640680E464FF029
:10144000000804F10C05E8B36078012701283ED0BC
:10145000022813D003285CD10846FFF726FE0500BA
:1014600057D02046FFF73EFF0446294600F066FAB3
:101470006770204600F069FA214621E02046FFF718
:1014800031FF0646002100F059FA2189F06904EB8A
:1014900081010861D5E85F0F401C81B2C5E8501F8B
:1014A0000028F7D12089401C80B22081E189884240
:1014B00001D1A4F808807770304600F046FA314632
:1014C000174800E00CE0BDE8F04100F0F7B9204615
:1014D000FFF708FF04463246102100F032FAC7E752
:1014E000A089E189884216D2208904EB8000066138
:1014F000D5E85F0F401C81B2C5E8501F0028F7D126
:101500002089401C80B22081E189884201D1A4F861
:101510000880BDE8F081BDE8F0410320FFF7CEBBB5
:10152000CC11002070B50446808915460026C0B352
:10153000608904EB8000006908606089401C80B20B
:101540006081E189884200D16681606810B160786D
:1015500002280BD014F10C04D4E85F0F401E81B2B6
:10156000C4E8501F0028F7D1002070BD2046FFF7C7
:10157000B9FE0546002100F0E1F92189E86904EB94
:10158000810108612089401C80B22081E189884264
:1015900000D12681284600F0D8F92846FFF72AFE18
:1015A000E2E7FFE73DB10B48626801682AB12046D7
:1015B00000F084F908E0012070BD616001684E60B0
:1015C000006884600120607008212846FFF79AFDBA
:1015D000F1E7000030000020002814D0411C13D097
:1015E0000C4A4FF6FE7190420CD800EB4002C2EB61
:1015F000C0120948036803EBC202521EB2FBF3F0AB
:10160000884204D9084670474FF6FF70704780B291
:101610007047000000093D0004210008032101700B
:101620000021418041608160C16070472DE9F04137
:101630000446408820B1314DA1682A68914202D009
:10164000FF20BDE8F081401E0004000C608053D1F3
:101650002968086AA04209D1E068086208E0C26807
:10166000A24202D1E268C26002E010460028F6D130
:1016700091F824000A6A06E053681BB19B78834204
:1016800000D91846D268002AF6D18870DFF8708039
:101690006168012611B32046FFF724FE07460021AA
:1016A00000F04CF9384600F050F96680A760386ABF
:1016B000E0603C622968D8F804008A788078824229
:1016C00001D3384616E00E4800F0F8F839460C48C9
:1016D00000F0F4F8286846707E700AE0D8F804102C
:1016E0008A782968824207D9054800F0E7F8286817
:1016F00046700020FFF77EFD0020A2E730000020AA
:10170000CC11002070B51C4D0E4604464188286857
:1017100061B1A268824210D1A1F57F40FF3803D0A9
:10172000491C6180002070BDFF2070BDA060016A6F
:10173000E160046201206080F4E776B191788078FE
:10174000814203D29070A06800F0DEF8606830B18A
:101750002046296800F0B2F808E0012070BD286832
:10176000606029680020486028688460092130464C
:10177000FFF7C8FCF1E700003000002070B51B48FF
:10178000012102685170006800F0B4F8184D6C78BF
:1017900018E000BF05EBC40148680278EAB1012AED
:1017A00020D000F0FFF8E878641C844200D10024C7
:1017B0000F48801CD0E84F1F491EC9B2C0E8421F25
:1017C000002AF7D1A8780028E4D16C700948FFF707
:1017D00089FDBDE8704000F011B9098989B2FFF7B1
:1017E0002FFDE0E78968FFF725FEDCE730000020E9
:1017F000280C0020CC1100200548017811B10121EE
:101800004170704703494FF08050086070470000F6
:101810003800002004ED00E0F0B4154DAB1CEE786C
:101820004FEA0507D3E84F2FB24202D1BFF32F8F03
:1018300011E0521CD4B2C3E8424F002AF2D100BFDB
:10184000D7E84F2F541CB44200D10024E4B2C7E8BB
:10185000434F002BF4D1EB78934205D905EBC2023C
:10186000C2E90101F0BC7047F0BC0220FFF726BAC4
:10187000280C0020104A10B5D368ABB113469B8AE0
:1018800003E08CB12246A48A2344D4688B42F8D367
:10189000C460D0600261C46804B12061591A8182B9
:1018A000908A401A908210BD0024C460D060C91A8A
:1018B00002619182848210BDE411002030B502786B
:1018C0000023022A03D0012A01D0032A00D10123D8
:1018D0008C7800E01046426812B19578A542F9D2A2
:1018E0004A6041601BB102B19160886030BD002048
:1018F000FBE7000003494A684260002282604860BA
:1019000070470000CC11002010B5836804462BB945
:10191000607801280ED1084B03E09B6818780028F6
:10192000FBD0204600F026F82146BDE810401846BE
:10193000FFF7C4BF10BD0000CC110020806A016217
:101940007047806AC0E90812704710B50169002924
:101950000ED0C268CA60C36800223BB18B8A848AF9
:1019600023448B82C3681961C26000E08A820261ED
:1019700010BD0000816839B142684A6041680029A1
:1019800001D0806888607047054906E04A68824255
:1019900002D140684860704711460029F6D170476F
:1019A000CC11002010B5416881B1FFF79BFC0446C3
:1019B000FFF7CBFF0120607001462046FFF7BEFF16
:1019C0002146BDE810400348FFF778BF4188491C15
:1019D000418010BDCC11002006480068D0E90A10F3
:1019E000814203D300680449884202D00120FFF7F6
:1019F00065B9704730000020A52E5AE2074902223F
:101A000048604270064A1278002A05D006C98A4208
:101A100002D0C078FFF730BA7047000030000020D5
:101A20004C00002070B5FFF7FFF900200446204A63
:101A3000204902E042F82040401C0B889842F9D32C
:101A40001D48342201881D48FFF7CAF91C48008848
:101A500080B240F000421B4801681B48FFF7C0F904
:101A60001A48082201881A480068FFF7B9F9194D89
:101A7000FF20194AE870EC8400212846FFF74AFC51
:101A8000164804210170446015480170C460046167
:101A90008482144815490560022068701248047059
:101AA00044700978C170BDE87040FFF765BC000064
:101AB000AC0C0020E02000080C21000850000020A1
:101AC000E4200008102100089802002034210008BA
:101AD0002000002098110020B90C0008CC11002033
:101AE000E411002030000020280C002018210008FC
:101AF0001B4810B5016841F47F01016000684FF098
:101B00007F4101EA00201649C0431439B0FA80F041
:101B10000968C0F10800C1F30221814200D3481CCA
:101B20000F49091F0B686FF08072824063F3170240
:101B30000A60FFF7A5FA0B49002808600EDB00F1E8
:101B4000E021FF2281F8002400F01F0201219140D2
:101B50004009800000F1E020C0F8001110BD000035
:101B600020ED00E03C0000200C4810B50268012187
:101B700051700068FFF7BEFEFFF7E0FA0848016801
:101B8000491C0160FFF7FEFA00F07CFA0548FFF7F8
:101B9000A9FBBDE81040FFF731BF00003000002076
:101BA00040000020CC110020002805D0810702D180
:101BB0000178002900D000207047000030B50B4CA0
:101BC0000023626805E095688D4204D813461268C8
:101BD000491B002AF7D10260816012B19568691A29
:101BE00091600BB1186030BD606030BD28000020EE
:101BF0002DE9F0411E46174680460D4611F0FF0FB5
:101C000000D14D1C1848FFF750FA041E16D0280AC0
:101C1000E762E084E9B242462046E661FFF77AFBDC
:101C200001251248124905E000EB850252F8042C08
:101C300032B16D1C0A889542F6D90020BDE8F081CA
:101C4000002DFAD000EB850040F8044C0948E570FF
:101C5000007818B101212046FFF7FEF82046FFF773
:101C6000C9FA2846EAE7000050000020AC0C00202A
:101C7000E02000084C0000202DE9F05F584DDFF80F
:101C80005891DFF8588129684FF0010A002618B1F1
:101C9000CA78AB46824243D14E70FEF7ACFA29684F
:101CA0008862FFF799FE2868046A1FE06068C0B187
:101CB0002046FFF717FB07460021FFF73FFE384697
:101CC000FFF743FE87F801A039464648FFF7F6FDC7
:101CD000E168A4F802A0A760386AE0603C620C46A4
:101CE00004E0E0686680A660E6600446002CDDD172
:101CF0002868C27808EB820141F8046CC16A3A484E
:101D0000FFF7C6FA2868C66299F8001011B10021E1
:101D1000FFF7A2F835482968FFF7BAFA2E6056E0B7
:101D20003349098888420CD808EB800858F8045CCD
:101D30003DB12846FFF71EFE2846FFF706FE2C6A37
:101D400022E0FF20BDE8F09F6068C0B12046FFF7A9
:101D5000C9FA07460021FFF7F1FD3846FFF7F5FD08
:101D600087F801A039461F48FFF7A8FDE168A4F8ED
:101D700002A0A760386AE0603C620C4604E0E068BC
:101D80006680A660E6600446002CDDD148F8046C4D
:101D90001548E96AFFF77CFAEE6299F8000018B17D
:101DA00000212846FFF758F829461048FFF770FA37
:101DB0000C48DBF8001040688B7882789A4209D989
:101DC00081F801A00748DBF80010FFF777FD00203D
:101DD000FFF710FA0020B5E74C000020AC0C002003
:101DE00030000020CC11002098020020500000207C
:101DF000E020000870B51A4D80B11A4A128890424E
:101E00001FD8194A02EB800050F8044CCCB1A170E5
:101E100084F824102868A04205D014E02868817056
:101E2000286880F82410114840688078884215D9C5
:101E30000E482968FFF742FD2968012048700020FC
:101E40000AE0FF2070BD2046FFF75EFD60780128A4
:101E500004D10648FFF746FAFFF7CCF9002070BD21
:101E600030000020E0200008AC0C0020CC11002045
:101E700002480068002800D0C07870473000002079
:101E800010B5002804D0FFF7A7FBFFF7D5F94020D5
:101E900010BD000010B5134C207860B912484007FF
:101EA00005D1124801681048FFF758FA08B185209B
:101EB00010BDFFF7B7FD0E49FF2009688870207834
:101EC00058B900210B4800F041F80B490860002187
:101ED0000A4800F06BF80A490860012020700020D1
:101EE000607010BD28000020780A0020142100082E
:101EF000300000202C210008180000201C210008C0
:101F00001400002070B50F4D687808B1002070BD36
:101F10000D4C206890F824100020FFF76BFF20681C
:101F2000C178FF2903D1816A203181F30988616872
:101F300011B9606000202060FFF7DAFD01206870B1
:101F4000E4E70000280000203000002010B5040065
:101F500005D0216819B1606808B102780AB1002083
:101F600010BD8900103189B2FFF756FA606810BDC4
:101F70003EB504000D464FF0800012D021780129B3
:101F80000FD12846FFF728FB0246204601A9FFF79C
:101F9000C9FA012801D0102003E00DB1402000E073
:101FA0000020DDE9011203B030BD000070B50E461F
:101FB000040029D0206838B3606810F1030F23DBD8
:101FC000032821DCE16829B11048FFF77BF8050000
:101FD0001AD000E000256068E168001D40EA012198
:101FE00033462A462068FFF703FE40B1084901EB5B
:101FF0008000084950F8040C826A516370BD1DB11D
:1020000029460248FFF75AF9002070BD780A0020DF
:10201000AC0C00203110000810B5FFF729FF002894
:1020200004D0034901EB800050F8040C10BD0000FF
:10203000AC0C002010B5FFF7B7FD18B1C18C19B179
:10204000C46A02E0802010BD0024C078FFF714FEAF
:10205000FF2806D01CB121460348FFF72FF90020C6
:1020600010BD812010BD0000780A002010B5FFF7D8
:102070004DF920B141690A680169104610BD002080
:10208000014610BD2DE9F041134E7468002C1CD0A0
:10209000A068124F401E4FF00108A06012E02546D4
:1020A00024687460002229463868FEF702FF10B1E8
:1020B0000420FEF703FE6879012808D085F8048023
:1020C000002C02D0A0680028E9D0BDE8F0812846A5
:1020D000E968FFF773FDF3E72800002018000020EF
:1020E0000B000000C800020105000100001BB70042
:1020F0000C000000DF2E00000100000002000100C3
:1021000052000400E8030000000000004802000044
:10211000E0070000B00100001000000055100008AA
:102120000200000001000000C800000004000000E0
:10213000D80C002000000000690300080000000027
:1021400001000000C8000000682100080000002015
:10215000500000006C010008B82100085000002069
:1021600010140000880100080000000001020304B0
:102170000102030406070809020406080000000023
:10218000000000000000000000000000000000004F
:10219000000000000000000000000000000000003F
:1021A000000000000000000000000000000000002F
:0821B000000000000000000027
:0400000508000323C9
:00000001FF
